:04000000CAEF07F04C
:1006000000202048454C4C4F20574F524C4421204D
:0F06100020002025303164202530326420000086
:100620001FBE15EF03F018EF03F0010E19EF03F0F2
:10063000000E286E2850D8B420EF03F022EF03F00C
:1006400026EF03F01E6C1F1ED8B01F2A59BE2BEFD9
:1006500003F02DEF03F02EEF03F05C9259BE35EF5F
:1006600003F033EF03F03BEF03F0000E236E010EB7
:10067000226E3FEF03F058C022F059C023F056C05D
:1006800024F057C025F02850D8B449EF03F04BEFC1
:1006900003F062EF03F02406D8A025062850D8A462
:1006A00054EF03F056EF03F05CEF03F0000E216E01
:1006B0002B0E206E60EF03F0000E216E2D0E206ECB
:1006C00020C028F0000E276E1F0E266E000E0001BF
:1006D0007F6F9BEF03F02606D8A02706600E262426
:1006E000D96E000E2720DA6E1EC001F01FC002F086
:1006F000000E046E0A0E036E04EC06F001C007F053
:1007000002C008F0EBEC07F00750300FDF6E220656
:10071000D8A023062406D8A025061EC001F01FC0BD
:1007200002F0000E046E0A0E036EA2EC05F001C08A
:100730001EF002C01FF027BEA6EF03F0275008E10D
:100740002604D8A0A6EF03F0A8EF03F0D2EF03F041
:100750001E501F10D8A4AFEF03F0B1EF03F06BEF02
:1007600003F023BEBEEF03F0235006E12204D8B00D
:10077000BCEF03F0BEEF03F06BEF03F025BEC9EF53
:1007800003F0255008E12404D8A0C9EF03F0CBEF13
:1007900003F0D2EF03F05CB2D0EF03F0D2EF03F03E
:1007A0006BEF03F02850D8B4D8EF03F0DAEF03F082
:1007B000E5EF03F02606D8A02706600E2624D96EA2
:1007C000000E2720DA6E28C0DFFF1CC011F01DC00C
:1007D00012F0600E2624136E000E2720146E24C023
:1007E00015F025C016F05CEC06F012002BC0D9FF06
:1007F0002CC0DAFFDECFF6FFDDCFF7FF0800F550A3
:10080000250AD8A406EF04F008EF04F0C5EF04F0C1
:100810002BC0D9FF2CC0DAFFDE2A000EDD22000E2D
:10082000576E000E566E56C05CF058685968000E40
:10083000366E000E356E47EF04F05C822BC0D9FF98
:100840002CC0DAFFDE2A000EDD2247EF04F0000E96
:10085000366E010E356E47EF04F02BC0D9FF2CC069
:10086000DAFFDECFF6FFDDCFF7FF0800F5502F6E81
:10087000306A3050000AD8B440EF04F027EF04F09B
:100880002F50300AD8B41DEF04F027EF04F0355094
:100890003610D8B44EEF04F050EF04F02DEF04F012
:1008A0002BC007F02CC008F02DC009F02EC00AF0B4
:1008B0003FEC05F007C056F008C057F057BE65EF93
:1008C00004F063EF04F06AEF04F05C80566C571E8E
:1008D000D8B0572A2BC0D9FF2CC0DAFFDECF37F0B3
:1008E000DDCF38F037C0F6FF38C0F7FF0800F5500D
:1008F000640AD8B47EEF04F080EF04F08EEF04F0C9
:1009000037C0F6FF38C0F7FF0800F550690AD8A4D1
:100910008CEF04F08EEF04F0BCEF04F02DC0D9FF93
:100920002EC0DAFFDFCF2FF0020EDE26DFCF30F051
:10093000000EDD222FC0D9FF30C0DAFFDECF31F04C
:10094000DDCF32F0010E37242F6E000E3820306ECE
:100950002BC0D9FF2CC0DAFF2FC0DEFF30C0DDFF77
:1009600029C01CF02AC01DF031C01EF032C01FF09B
:1009700010EC03F0D9EF04F02BC0D9FF2CC0DAFF44
:10098000DE2A000EDD22D9EF04F02BC0D9FF2CC0E7
:10099000DAFFDECFF6FFDDCFF7FF0800F550016E7E
:1009A000026A29C003F02AC004F0DAEC04F0BCEFBC
:1009B00004F0120003500410D8B4E1EF04F0E3EFA8
:1009C00004F0ECEF04F003500410D8A4EAEF04F0B4
:1009D000ECEF04F0F1EF04F0015058EC08F03EEFBA
:1009E00005F020EE0AF00350D9260450DA22DE503A
:1009F000DE10D8B4FEEF04F000EF05F01BEF05F0B9
:100A000020EE0AF00350D9260450DA2210EE03F04B
:100A10000350E1260450E222DE50E65CE650800AF4
:100A2000096EDE50800A0958D8B019EF05F01BEFA7
:100A300005F03EEF05F020EE03F00350D9260450F8
:100A4000DA22DECF05F0DDCF06F003C0D9FF04C007
:100A5000DAFFDECF07F0DDCF08F005500724D96EAE
:100A600006500820DA6E01C0DFFF20EE03F00350CD
:100A7000D9260450DA22DE2A000EDD221200000EF2
:100A80000F6E000E0E6E07C0D9FF08C0DAFFDECF72
:100A9000F6FFDDCFF7FF0800F5502A0AD8A453EF80
:100AA00005F055EF05F089EF05F007C0D9FF08C044
:100AB000DAFFDE2A000EDD2209C0D9FF0AC0DAFF04
:100AC000DFCF0BF0020EDE26DFCF0CF0000EDD22B2
:100AD0000BC0D9FF0CC0DAFFDECF0EF0DDCF0FF078
:100AE0009DEF05F00EC001F00FC002F0000E046E85
:100AF0000A0E036E28EC08F00D5001240E6E000E55
:100B000002200F6E07C0D9FF08C0DAFFDE2A000EF0
:100B1000DD2207C0D9FF08C0DAFFDECFF6FFDDCF48
:100B2000F7FF0800F550D00F0D6E090E0D649BEF16
:100B300005F09DEF05F072EF05F00EC007F00FC055
:100B400008F01200000E066E04BEABEF05F0A9EF30
:100B500005F0B1EF05F0036C041ED8B0042A010EB5
:100B6000066E02BEB8EF05F0B6EF05F0BEEF05F079
:100B7000016C021ED8B0022A010E061A000E086E81
:100B8000000E076E03500410D8B4C9EF05F0CBEF88
:100B900005F0F3EF05F0010E056ED3EF05F0D890E8
:100BA00003360436052A04AED8EF05F0DAEF05F077
:100BB000CFEF05F0D890073608360350015C04509B
:100BC0000258D8A0E6EF05F0E8EF05F0EDEF05F0EC
:100BD0000350015E0450025A0780D8900432033259
:100BE000052EDAEF05F00650D8B4F9EF05F0FBEF6B
:100BF00005F0FFEF05F0076C081ED8B0082A07C003
:100C000001F008C002F01200000E066E02BE0DEFE9
:100C100006F00BEF06F013EF06F0016C021ED8B0E1
:100C2000022A010E066E04BE1AEF06F018EF06F057
:100C30001EEF06F0036C041ED8B0042A0350041003
:100C4000D8B425EF06F027EF06F04BEF06F0010EC3
:100C5000056E2FEF06F0D89003360436052A04AE51
:100C600034EF06F036EF06F02BEF06F00350015C90
:100C700004500258D8A03FEF06F041EF06F045EFD0
:100C800006F00350015E0450025AD8900432033239
:100C9000052E36EF06F00650D8B451EF06F053EFAC
:100CA00006F057EF06F0016C021ED8B0022A01C010
:100CB00001F002C002F012005CA061EF06F063EFE9
:100CC00006F06DEF06F013C00AF014C00BF011C06F
:100CD0000CF012C00DF0A8EC07F016BE72EF06F093
:100CE00074EF06F07AEF06F015C01AF016C01BF08C
:100CF0007EEF06F0000E1B6E000E1A6E000E196ECF
:100D0000000E186E90EF06F0000E026E200E016EBF
:100D100011C003F012C004F0DAEC04F0184A192AEA
:100D20001A50185C1950800A176E1B50800A175809
:100D3000D8A09DEF06F09FEF06F084EF06F05CB0C0
:100D4000A4EF06F0A6EF06F0B0EF06F013C00AF02D
:100D500014C00BF011C00CF012C00DF0A8EC07F09D
:100D60001200000E0F01396FC00E936EF6EC06F004
:100D70003BEC08F0000E51EC08F0010E036E060E7D
:100D8000046E2BEC07F0340E556EF20EE82EFED7F3
:100D9000552EFCD7800E416E000E426E120E436E31
:100DA000060E446E5AC045F05BC046F082EC07F078
:100DB000400E51EC08F0800E036E000E046E2BEC1A
:100DC00007F05A4A5B2AE80E5A5C030E5B58D8A01B
:100DD000ECEF06F0EEEF06F0C3EF06F0000E5B6EF0
:100DE000000E5A6EC3EF06F000EF00F08198819A72
:100DF000270E046EF50EE82EFED7042EFCD700F069
:100E00008150F00B030F816E818A819A0D0E046E62
:100E1000FC0EE82EFED7042EFCD7818A819A850E1F
:100E2000E82EFED700F0818A819A850EE82EFED743
:100E300000F08150F00B020F816E818A819A280E9A
:100E40000BEC08F00C0E0BEC08F03BEC08F0060E77
:100E50000BEC08F01200818842EF07F003C0F6FFA8
:100E600004C0F7FFF86A050EF76403D00800F550D8
:100E700005D0F6CFE1FFF7CFE2FFE7500BEC08F02B
:100E8000034A042A03C0F6FF04C0F7FFF86A050E00
:100E9000F76403D00800F55005D0F6CFE1FFF7CF97
:100EA000E2FFE7500009D8A458EF07F05AEF07F027
:100EB0002EEF07F012003BC03FF03CC040F06FEF58
:100EC00007F039C029F03AC02AF03F0E2B6E000E11
:100ED0002C6E3DC02DF03EC02EF0F6EC03F03FC06E
:100EE000F6FF40C0F7FF0800F5500009D8A47BEFDB
:100EF00007F07DEF07F061EF07F0000E3A6E000E8D
:100F0000396E1200450E476E000E486E41C049F022
:100F100042C04AF0000E4D6E000E4C6E000E546E34
:100F2000000E536E490E396E000E3A6E43C03BF010
:100F300044C03CF0470E3D6E000E3E6E5BEC07F089
:100F40004C504124D96E4D504220DA6EDF6A1200B7
:100F5000000E106E000E0F6EB9EF07F00EC001F01C
:100F6000026A0CC003F00DC004F0DAEC04F00F4A82
:100F7000102A0F500A24D96E10500B20DA6EDF5061
:100F80000E6E0E50D8A4C7EF07F0C9EF07F0AEEF12
:100F900007F01200900EF66E100EF76E000EF86E4F
:100FA00000EE80F010EE11F00900F5CFEEFFE550F5
:100FB000E150FAE100EE60F0200EEE6AE806FDE195
:100FC00000EE56F0070EEE6AE806FDE1000EF86E40
:100FD0000001B1EF06F008BEF8EF07F0085006E197
:100FE0000704D8B0F6EF07F0F8EF07F006EF08F0C7
:100FF00007C009F008C00AF0091E0A1E094A0A2A99
:1010000009C007F00AC008F00AEF08F007C007F0AF
:1010100008C008F01200026E1A0EE82EFED700D0AB
:1010200002C001F0013A0F0E01160F0E0116815099
:10103000F00B0124816E818A819A02C001F00F0EAB
:1010400001168150F00B0124816E818A819A120071
:1010500001500302F3CF05F0F4CF06F00150040273
:10106000F350062602500302F350062605C001F095
:1010700006C002F012008198010E0BEC08F0060E7B
:10108000036E300EE82EFED7032EFCD700D01200E0
:101090002020202020202020202020202020202050
:0110A000202F
:1010A200036E81980350800F0BEC08F012001200BF
:020000040020DA
:08000000FFFFFFFFFFFFFFFF00
:020000040030CA
:0E000000FF221F3CFFBF85FF0FC00FE00F4027
:00000001FF
