:04000000C1EF00F05C
:100008002582D9CF18F0DACF19F0F2A40EEF00F05C
:1000180010EF00F091EF00F0F294830ED66E000E10
:10002800836E0C0E2324D96EDA6A000EDA22DF50B2
:10003800156E166A010E1524D96E000E1620DA6E9A
:10004800DF50826E23C015F0800E166E000E176EFC
:10005800152A32EF00F0173417321632152E2FEF0B
:1000680000F016501014836E232A030E23643FEF0A
:1000780000F041EF00F091EF00F0000E236E222A0D
:10008800F90E22644AEF00F04CEF00F091EF00F017
:10009800000E226E11061150D8A455EF00F057EF4C
:1000A80000F091EF00F02450D8A45DEF00F05FEF6E
:1000B80000F065EF00F0010E246E13C011F080EF20
:1000C80000F02404D8A46BEF00F06DEF00F073EF9C
:1000D80000F0020E246E12C011F080EF00F0020E44
:1000E8002418D8A47AEF00F07CEF00F080EF00F03D
:1000F800000E246E14C011F024C015F0010E166E07
:10010800152A89EF00F0D8901636152E87EF00F0E3
:1001180016501014846E91EF00F0F2A296EF00F0E2
:1001280098EF00F0BBEF00F0F292101E24C015F01B
:10013800010E166E152AA3EF00F0D8901636152E6C
:10014800A1EF00F016501014846E23C015F0800E35
:10015800166E000E176E152AB5EF00F01734173219
:100168001632152EB2EF00F016501014836E19C017
:10017800DAFF18C0D9FF25921100BAEF01F0000E7E
:100188001F6E1DBECCEF00F0CAEF00F0D2EF00F0FA
:100198001C6C1D1ED8B01D2A010E1F6E1BBED9EF88
:1001A80000F0D7EF00F0DFEF00F01A6C1B1ED8B09C
:1001B8001B2A010E1F1A000E216E000E206E1C5005
:1001C8001D10D8B4EAEF00F0ECEF00F014EF01F0E6
:1001D800010E1E6EF4EF00F0D8901C361D361E2A54
:1001E8001DAEF9EF00F0FBEF00F0F0EF00F0D89053
:1001F800203621361C501A5C1D501B58D8A007EF1A
:1002080001F009EF01F00EEF01F01C501A5E1D50CD
:100218001B5A2080D8901D321C321E2EFBEF00F096
:100228001F50D8B41AEF01F01CEF01F020EF01F0D5
:10023800206C211ED8B0212A20C01AF021C01BF042
:100248001200000E1F6E1BBE2EEF01F02CEF01F006
:1002580034EF01F01A6C1B1ED8B01B2A010E1F6E5A
:100268001DBE3BEF01F039EF01F03FEF01F01C6CD0
:100278001D1ED8B01D2A1C501D10D8B446EF01F021
:1002880048EF01F06CEF01F0010E1E6E50EF01F027
:10029800D8901C361D361E2A1DAE55EF01F057EFBB
:1002A80001F04CEF01F01C501A5C1D501B58D8A0EF
:1002B80060EF01F062EF01F066EF01F01C501A5E8A
:1002C8001D501B5AD8901D321C321E2E57EF01F0BC
:1002D8001F50D8B472EF01F074EF01F078EF01F01D
:1002E8001A6C1B1ED8B01B2A1AC01AF01BC01BF0B0
:1002F8001200000E0F01386F9268000E396F936874
:10030800F19E000E3A6F000E946E000E826E000E83
:100318003B6F0F0E956E000E836E000E3C6F000E45
:10032800966E010E846EC30ED56E830ED66EF19C4A
:10033800F288F28AF184F28E11C01AF01B6A000E5C
:100348001D6E0A0E1C6EC3EC00F01A500F6E11C021
:100358001AF01B6A000E1D6E0A0E1C6E25EC01F0C9
:100368001A500E6EA0EF01F0C1EF00F0A40EF66E69
:10037800030EF76E000EF86E00EE01F010EE14F0AA
:100388000900F5CFEEFFE550E150FAE1246A236A4F
:10039800226A2590259200017DEF01F03F065B4F10
:1003A800666D7D077F6F40050A0000FF1E0F031E64
:020000040020DA
:08000000FFFFFFFFFFFFFFFF00
:020000040030CA
:0E000000FF221F3CFFBF85FF0FC00FE00F4027
:00000001FF
