:0400000062EF00F0BB
:100008002D82D9CF03F0DACF04F0F2A40EEF00F07E
:1000180010EF00F05CEF00F0F294060ED66E000EC2
:10002800806E120E2024D96EDA6A000EDA22DF50B2
:10003800016E026A210E0124D96E000E0220DA6ECA
:10004800DF50836E20C001F0010E026E012A2FEFEF
:1000580000F0D8900236012E2DEF00F00250806E8D
:10006800202A030E20643BEF00F03DEF00F03FEF45
:1000780000F0000E206E010E1C26000E1D221E220E
:100088001F22210E1C5CA10E1D58FF0E1E58FF0ECC
:100098001F58D8A052EF00F054EF00F05CEF00F0CA
:1000A800000E1C6E000E1D6E000E1E6E000E1F6EE2
:1000B80004C0DAFF03C0D9FF2D92110094EF01F0BC
:1000C800000E0F01386FF00E926E000E806E000E5B
:1000D8003B6F000E956E000E836EC30ED56E060E36
:1000E800D66EF28AF184F28E1CC005F01DC006F0AF
:1000F8001EC007F01FC008F0320E096E000E0A6E0F
:10010800000E0B6E000E0C6ED6EC00F005C02BF046
:1001180006C02CF02BC00AF02CC00BF0030E0D6E9D
:10012800E80E0C6E28EC01F00A50156E030E086EEE
:10013800E80E076E2BC005F02CC006F062EC01F04B
:1001480005C00AF006C00BF0000E0D6E640E0C6EB2
:1001580028EC01F00A50146E000E086E640E076E4B
:100168002BC005F02CC006F062EC01F005C00AF0C7
:1001780006C00BF0000E0D6E0A0E0C6E28EC01F096
:100188000A50136E2BC005F02CC006F0000E086E46
:100198000A0E076E62EC01F00550126E78EF00F05F
:1001A80062EF00F0000E0D6E000E0E6E000E0F6E68
:1001B800000E106E09500A100B100C10D8B4E7EF9F
:1001C80000F0E9EF00F01FEF01F0010E116EF3EF00
:1001D80000F0D89009360A360B360C36112A0CAEC8
:1001E800F8EF00F0FAEF00F0EDEF00F0D8900D36E0
:1001F8000E360F3610360950055C0A5006580B505B
:1002080007580C500858D8A00CEF01F00EEF01F079
:1002180017EF01F00950055E0A50065A0B50075AAD
:100228000C50085A0D80D8900C320B320A32093221
:10023800112EFAEF00F00DC005F00EC006F00FC049
:1002480007F010C008F01200000E0F6E000E0E6EC0
:100258000C500D10D8B433EF01F035EF01F05DEF1D
:1002680001F0010E106E3DEF01F0D8900C360D36FE
:10027800102A0DAE42EF01F044EF01F039EF01F022
:10028800D8900E360F360C500A5C0D500B58D8A07B
:1002980050EF01F052EF01F057EF01F00C500A5EF9
:1002A8000D500B5A0E80D8900D320C32102E44EFA0
:1002B80001F00EC00AF00FC00BF012000750081032
:1002C800D8B469EF01F06BEF01F08FEF01F0010E88
:1002D800096E73EF01F0D89007360836092A08AE80
:1002E80078EF01F07AEF01F06FEF01F00750055C4D
:1002F80008500658D8A083EF01F085EF01F089EF88
:1003080001F00750055E0850065AD89008320732A7
:10031800092E7AEF01F005C005F006C006F01200BC
:100328005E0EF66E030EF76E000EF86E00EE21F00C
:1003380010EE0AF00900F5CFEEFFE550E150FAE1C2
:1003480000EE12F00F0EEE6AE806FDE12D902D92F8
:10035800000164EF00F03F065B4F666D7D077F6F1D
:020000040020DA
:08000000FFFFFFFFFFFFFFFF00
:020000040030CA
:0E000000FF221F3CFFBF85FF0FC00FE00F4027
:00000001FF
