:0400000045EF00F0D8
:100008002A82D9CF03F0DACF04F0F2A40EEF00F081
:1000180010EF00F03FEF00F0F294060ED66E000EDF
:10002800806E130E1F24D96EDA6A000EDA22DF50B2
:10003800016E026A200E0124D96E000E0220DA6ECB
:10004800DF50836E1FC001F0010E026E012A2FEFF0
:1000580000F0D8900236012E2DEF00F00250806E8D
:100068001F2A030E1F643BEF00F03DEF00F03FEF47
:1000780000F0000E1F6E04C0DAFF03C0D9FF2A92F9
:1000880011002AEF01F0000E0F01386FF00E926E8A
:10009800000E806E000E3B6F000E956E000E836E94
:1000A800020E3C6F070E966EA10EC06E000EC16E5A
:1000B8001B0EC26EC30ED56E060ED66EF28AF18482
:1000C800F28EC2B26AEF00F06CEF00F076EF00F04B
:1000D800C450126E116AC35011241D6E000E1220F6
:1000E8001E6EC2821DC00AF01EC00BF0030E0D6EFC
:1000F800E80E0C6EBEEC00F00A50166E030E086E89
:10010800E80E076E1DC005F01EC006F0F8EC00F002
:1001180005C00AF006C00BF0000E0D6E640E0C6EE2
:10012800BEEC00F00A50156E000E086E640E076EE5
:100138001DC005F01EC006F0F8EC00F005C00AF07E
:1001480006C00BF0000E0D6E0A0E0C6EBEEC00F031
:100158000A50146E1DC005F01EC006F0000E086E91
:100168000A0E076EF8EC00F00550136E65EF00F00C
:1001780045EF00F0000E0F6E000E0E6E0C500D10C5
:10018800D8B4C9EF00F0CBEF00F0F3EF00F0010EA8
:10019800106ED3EF00F0D8900C360D36102A0DAE45
:1001A800D8EF00F0DAEF00F0CFEF00F0D8900E367D
:1001B8000F360C500A5C0D500B58D8A0E6EF00F033
:1001C800E8EF00F0EDEF00F00C500A5E0D500B5A0E
:1001D8000E80D8900D320C32102EDAEF00F00EC0DF
:1001E8000AF00FC00BF0120007500810D8B4FFEF48
:1001F80000F001EF01F025EF01F0010E096E09EFA3
:1002080001F0D89007360836092A08AE0EEF01F03B
:1002180010EF01F005EF01F00750055C0850065893
:10022800D8A019EF01F01BEF01F01FEF01F0075004
:10023800055E0850065AD89008320732092E10EF8A
:1002480001F005C005F006C006F012008A0EF66E31
:10025800020EF76E000EF86E00EE20F010EE0AF0B7
:100268000900F5CFEEFFE550E150FAE100EE13F09A
:100278000D0EEE6AE806FDE12A902A92000147EF8A
:0C02880000F03F065B4F666D7D077F6F46
:020000040020DA
:08000000FFFFFFFFFFFFFFFF00
:020000040030CA
:0E000000FF221F3CFFBF85FF0FC00FE00F4027
:00000001FF
