:040000009BEF03F07F
:1006000000202048454C4C4F20574F524C4421204D
:03061000200000C7
:100614008198819A270E046EF50EE82EFED7042EDB
:10062400FCD700F08150F00B030F816E818A819A10
:100634000D0E046EFC0EE82EFED7042EFCD7818A24
:10064400819A850EE82EFED700F0818A819A850E64
:10065400E82EFED700F08150F00B020F816E818AE4
:10066400819A280E3FEC03F00C0E3FEC03F08EEC65
:1006740003F0060E3FEC03F01200026E1A0EE82E91
:10068400FED700D002C001F0013A0F0E01160F0E82
:1006940001168150F00B0124816E818A819A02C077
:1006A40001F00F0E01168150F00B0124816E818A36
:1006B400819A1200818869EF03F003C0F6FF04C039
:1006C400F7FF0800F5503FEC03F0034A042A03C087
:1006D400F6FF04C0F7FF0800F5500009D8A475EF31
:1006E40003F077EF03F05FEF03F01200000E0F0149
:1006F400396FC00E936E0AEC03F08EEC03F0000E1B
:10070400A2EC03F0010E036E060E046E5CEC03F023
:100714008AEF03F000EF00F08198010E3FEC03F044
:10072400060E036E300EE82EFED7032EFCD700D043
:100734001200000EF86E060EF76E000178EF03F05B
:0E074400036E81980350800F3FEC03F012000B
:020000040020DA
:08000000FFFFFFFFFFFFFFFF00
:020000040030CA
:0E000000FF221F3CFFBF85FF0FC00FE00F4027
:00000001FF
