:04000000A7EF00F076
:100008004E82D9CF05F0DACF06F0F3CF07F0F4CF60
:1000180008F0F2A412EF00F014EF00F09DEF00F0EA
:10002800F294000E4CB0010E100DF3CF01F0000E4B
:100038004DB0010E200DF35001240F0F836E405078
:10004800D8B429EF00F02BEF00F04DEF00F0320E9E
:100058004024D96EDA6A000EDA22DF50016E026A95
:10006800410E0124D96E000E0220DA6EDF50036EB5
:10007800020E4018D8B443EF00F046EF00F0010E2E
:1000880047EF00F0000E800DF3500324826E4FEF0F
:1000980000F04BC082FF40C001F0010E026E012A41
:1000A80058EF00F0D8900236012E56EF00F00250BB
:1000B800FF0A036E0F0E0316000E4CB0010E100D52
:1000C800F3CF04F0000E4DB0010E200DF3500424C0
:1000D8000324836E402A040E4018D8A476EF00F05B
:1000E80078EF00F07AEF00F0000E406E364A372ABB
:1000F800F40E361806E13704D8A485EF00F087EF30
:1001080000F09DEF00F0000E376E000E366E4CA02A
:1001180090EF00F093EF00F04C8094EF00F04C90DB
:100128004DA099EF00F09CEF00F04D809DEF00F09E
:100138004D9008C0F4FF07C0F3FF06C0DAFF05C002
:10014800D9FF4E921100F3EF02F04C804D90000E53
:100158000F01386F9268000E396F9368000E3A6F7E
:10016800000E946E000E826EC00E3B6FC00E956E30
:10017800000E836E000E3C6F7F0E966EA10EC06E51
:10018800000EC16E6B0EC26EC30ED56EF28AF1847C
:10019800F28E4CA002D0838801D083984DA002D063
:1001A800838A01D0839AC2B2DCEF00F0DEEF00F060
:1001B80027EF01F0C230E8321F0B1A0AD8A4E7EF84
:1001C80000F0E9EF00F003EF01F0C4CF22F0030ED6
:1001D80022162250246E236AC3502326000E24229E
:1001E80023C03CF024C03DF0000E3DBEFF0E3E6E25
:1001F8003F6EC250830B6C09C26E26EF01F0C2300D
:10020800E8321F0B1B0AD8A40CEF01F00EEF01F027
:1002180026EF01F0C4CF22F0030E22162250246EDE
:10022800236AC3502326000E242223C038F024C09A
:1002380039F0000E39BEFF0E3A6E3B6EC250830B8A
:100248006809C26EC2824CA02CEF01F02EEF01F0BB
:100258005CEF01F03CC009F03DC00AF03EC00BF075
:100268003FC00CF0500E0D6EC30E0E6E000E0F6EDA
:10027800000E106EBEEC02F009C015F00AC016F0B0
:100288000BC017F00CC018F0FF0E196E030E1A6E93
:10029800000E1B6E000E1C6E28EC02F015C02EF02E
:1002A80016C02FF017C030F018C031F088EF01F0F9
:1002B80038C009F039C00AF03AC00BF03BC00CF066
:1002C800500E0D6EC30E0E6E000E0F6E000E106EE9
:1002D800BEEC02F009C015F00AC016F00BC017F00A
:1002E8000CC018F0FF0E196E030E1A6E000E1B6E6E
:1002F800000E1C6E28EC02F015C02EF016C02FF070
:1003080017C030F018C031F02EC015F02FC016F00D
:1003180030C017F031C018F0E80E196E030E1A6ECF
:10032800000E1B6E000E1C6E28EC02F01550356E88
:1003380035C009F00A6A030E0C6EE80E0B6E0FEC5E
:1003480003F009C022F00AC023F0000E23BEFF0EFE
:10035800246E256E22502E5C156E23502F58166E73
:1003680024503058176E25503158186E640E196E87
:10037800000E1A6E000E1B6E000E1C6E28EC02F0AA
:100388001550346E3450640DF3CF22F0F4CF23F0BF
:10039800000E23BEFF0E246E256E35C009F00A6AD2
:1003A800030E0C6EE80E0B6E0FEC03F009C026F07E
:1003B8000AC027F0000E27BEFF0E286E296E261EE3
:1003C800271E281E291E262A000E27222822292217
:1003D8002250265C2A6E235027582B6E245028580A
:1003E8002C6E255029582D6E2E502A24156E2F500C
:1003F8002B20166E30502C20176E31502D20186E81
:100408000A0E196E000E1A6E000E1B6E000E1C6E80
:1004180028EC02F01550336E2EC009F02FC00AF0F8
:1004280030C00BF031C00CF00A0E0D6E000E0E6ECF
:10043800000E0F6E000E106E7AEC02F00950326E4C
:10044800CDEF00F0A7EF00F0000E1D6E000E1E6E3F
:10045800000E1F6E000E206E19501A101B101C1073
:10046800D8B439EF02F03BEF02F071EF02F0010E61
:10047800216E45EF02F0D89019361A361B361C3615
:10048800212A1CAE4AEF02F04CEF02F03FEF02F0D7
:10049800D8901D361E361F3620361950155C1A5056
:1004A80016581B5017581C501858D8A05EEF02F069
:1004B80060EF02F069EF02F01950155E1A50165AF3
:1004C8001B50175A1C50185A1D80D8901C321B32CA
:1004D8001A321932212E4CEF02F01DC015F01EC041
:1004E80016F01FC017F020C018F012000D500E10A3
:1004F8000F101010D8B483EF02F085EF02F0B5EFBB
:1005080002F0010E116E8FEF02F0D8900D360E3604
:100518000F361036112A10AE94EF02F096EF02F063
:1005280089EF02F00D50095C0E500A580F500B5815
:1005380010500C58D8A0A3EF02F0A5EF02F0ADEFD1
:1005480002F00D50095E0E500A5A0F500B5A105007
:100558000C5AD89010320F320E320D32112E96EFFF
:1005680002F009C009F00AC00AF00BC00BF00CC079
:100578000CF01200000E116E000E126E000E136EBB
:10058800000E146E09A0CBEF02F0CDEF02F0D5EF0C
:1005980002F00D5011260E5012220F501322105047
:1005A8001422D8900D360E360F361036D8900C32ED
:1005B8000B320A32093209500A100B100C10D8A459
:1005C800E8EF02F0EAEF02F0C6EF02F011C009F01E
:1005D80012C00AF013C00BF014C00CF01200440E45
:1005E800F66E060EF76E000EF86E00EE41F010EE95
:1005F8000BF00900F5CFEEFFE550E150FAE14D6A46
:1006080000EE2EF0130EEE6AE806FDE14E904E92D3
:100618000001A9EF00F009500B02F3CF0DF0F4CF61
:100628000EF009500C02F3500E260A500B02F3503C
:100638000E260DC009F00EC00AF012003F065B4FEF
:07064800666D7D077F6F392D
:020000040020DA
:08000000FFFFFFFFFFFFFFFF00
:020000040030CA
:0E000000FF221F3CFFBF85FF0FC00FE00F4027
:00000001FF
