:040000005AEF3FF084
:107EB2000001B20EF66E7E0EF76E000EF86E09002D
:107EC200F5CF06F00900F5CF07F0056A046A036AE8
:107ED200026A016A00016EEF3FF0030E0F01386F74
:107EE2009268000E396F9368000E3A6FF90E946E25
:107EF200000E3B6F9568000E3C6F7F0E966EA10ED2
:107F0200C06E000EC26E06C008F008460846C25097
:107F12000818830B0818C26EC280C282040EBA6EA1
:107F2200BB680C0EBD6E0C0E666EC2B29BEF3FF0CC
:107F32009DEF3FF0CEEF3FF0C350C4CF08F0096A87
:107F420008C009F0086A0826000E09220550020D31
:107F5200010EF324D96E000EF420DA6E08C0DEFFA3
:107F620009C0DDFF052A010E0564BAEF3FF0BCEF40
:107F72003FF0BEEF3FF0000E056E060E0524D96EEF
:107F8200DA6A000EDA22DF50086E08460846C2504E
:107F92000818830B0818C26EC28201C008F002C022
:107FA20009F0D89009320832D890093208320850C4
:107FB200BE6EBDCF08F0CF0E08160150030B100D98
:107FC200F3500824BD6E20EE03F0DECF08F0DDCFC3
:107FD20009F0D89009320832D89009320832085094
:107FE200676E66CF08F0CF0E08160350030B100D14
:0E7FF200F3500824666E96EF3FF000EF00F0AB
:020000040020DA
:08000000FFFFFFFFFFFFFFFF00
:020000040030CA
:0E000000FF221F3CFFBF85FF0FC00FE00F4027
:00000001FF
