:04000000A9EF00F074
:100008003D82D9CF1EF0DACF1FF0F3CF20F0F4CF26
:1000180021F0F2A412EF00F014EF00F05EEF00F010
:10002800F294060ED66E000E806E3C50D8A41FEFD8
:1000380000F021EF00F025EF00F032C083FF45EF1C
:1000480000F0330E3C24D96EDA6A000EDA22DF5053
:100058001B6E1C6A280E1B24D96E000E1C20DA6E3B
:10006800DF501D6E030E3C18D8B43DEF00F040EF92
:1000780000F0010E41EF00F0000E800DF3501D243A
:10008800836E3CC01BF0010E1C6E1B2A4EEF00F065
:10009800D8901C361B2E4CEF00F01C50806E3C2A6A
:1000A800030E3C645AEF00F05CEF00F05EEF00F0E6
:1000B800000E3C6E9EAC63EF00F065EF00F09FEF22
:1000C80000F09E9CC350C4CF1BF01C6A1BC01CF0E0
:1000D8001B6A1B26000E1C221BC001F01CC002F06C
:1000E800000E02BEFF0E036E046E880E056E130E20
:1000F800066E000E076E000E086E73EC02F001C06B
:100108000DF002C00EF003C00FF004C010F0FF0E97
:10011800116E030E126E000E136E000E146E55EC67
:1001280001F00DC037F00EC038F00FC039F010C024
:100138003AF0010E3B6E21C0F4FF20C0F3FF1FC050
:10014800DAFF1EC0D9FF3D921100A8EF02F0000EA1
:100158000F01386FF00E926E000E806E000E3B6F2E
:10016800000E956E000E836E020E3C6F070E966EA3
:10017800A10EC06E000EC16E1B0EC26EC30ED56EF0
:10018800060ED66E9D8C9F8CF28AF184F28E3B040B
:10019800D8A4D1EF00F0D3EF00F0CBEF00F0000EC1
:1001A8003B6E37C068F038C069F039C06AF03AC0B1
:1001B8006BF0E80E00016C6F030E6D6F000E6E6F32
:1001C800000E6F6FDBEC01F000016851366EE80E2F
:1001D800646F030E656F000E666F000E676F37C0A1
:1001E80060F038C061F039C062F03AC063F02EECBC
:1001F80002F060C068F061C069F062C06AF063C074
:100208006BF0640E00016C6F000E6D6F000E6E6F68
:10021800000E6F6FDBEC01F000016851356E640E63
:10022800646F000E656F000E666F000E676F37C053
:1002380060F038C061F039C062F03AC063F02EEC6B
:1002480002F060C068F061C069F062C06AF063C023
:100258006BF00A0E00016C6F000E6D6F000E6E6F72
:10026800000E6F6FDBEC01F000016851346E37C08F
:1002780060F038C061F039C062F03AC063F00A0E2D
:10028800646F000E656F000E666F000E676F2EECD0
:1002980002F000016051336EC282CBEF00F0A9EF8B
:1002A80000F0000E166E14BE5EEF01F05CEF01F078
:1002B80068EF01F0141E131E121E116C000E12229C
:1002C80013221422010E166E10BE6FEF01F06DEFAF
:1002D80001F079EF01F0101E0F1E0E1E0D6C000EBE
:1002E8000E220F221022010E161A000E176E000E93
:1002F800186E000E196E000E1A6E1150121013109F
:100308001410D8B48AEF01F08CEF01F0C2EF01F0BD
:10031800010E156E96EF01F0D8901136123613368D
:100328001436152A14AE9BEF01F09DEF01F090EF03
:1003380001F0D8901736183619361A3611500D5C58
:1003480012500E5813500F5814501058D8A0AFEF31
:1003580001F0B1EF01F0BAEF01F011500D5E12504B
:100368000E5A13500F5A1450105A1780D89014323E
:10037800133212321132152E9DEF01F01650D8B4F7
:10038800C8EF01F0CAEF01F0D2EF01F01A1E191EF2
:10039800181E176C000E182219221A2217C00DF009
:1003A80018C00EF019C00FF01AC010F01200000E9D
:1003B800236E000E246E000E256E000E266E0001C0
:1003C8006C516D116E116F11D8B4EDEF01F0EFEFB4
:1003D80001F025EF02F0010E276EF9EF01F0D89039
:1003E8006C376D376E376F37272A6FAFFEEF01F026
:1003F80000EF02F0F3EF01F0D890233624362536CB
:1004080026366C51685D6D5169596E516A596F5144
:100418006B59D8A012EF02F014EF02F01DEF02F0B2
:100428006C51685F6D51695B6E516A5B6F516B5BB4
:100438002380D8906F336E336D336C33272E00EFE3
:1004480002F023C068F024C069F025C06AF026C015
:100458006BF0120000016451651166116711D8B480
:1004680038EF02F03AEF02F06AEF02F0010E226E66
:1004780044EF02F0D8906437653766376737222A29
:1004880067AF49EF02F04BEF02F03EEF02F0645124
:10049800605D655161596651625967516359D8A0C9
:1004A80058EF02F05AEF02F062EF02F06451605F19
:1004B8006551615B6651625B6751635BD8906733D6
:1004C800663365336433222E4BEF02F060C060F070
:1004D80061C061F062C062F063C063F01200000E98
:1004E800096E000E0A6E000E0B6E000E0C6E01A057
:1004F80080EF02F082EF02F08AEF02F00550092641
:1005080006500A2207500B2208500C22D8900536B4
:10051800063607360836D8900432033202320132E2
:100528000150021003100410D8A49DEF02F09FEFB1
:1005380002F07BEF02F009C001F00AC002F00BC024
:1005480003F00CC004F01200860EF66E050EF76E6E
:10055800000EF86E00EE28F010EE0BF00900F5CF53
:10056800EEFFE550E150FAE100EE33F00A0EEE6AD4
:10057800E806FDE13D903D920001ABEF00F03F063B
:090588005B4F666D7D077F6F1C5F
:020000040020DA
:08000000FFFFFFFFFFFFFFFF00
:020000040030CA
:0E000000FF221F3CFFBF85FF0FC00FE00F4027
:00000001FF
