:04000000C3EF00F05A
:100008003E82D9CF1EF0DACF1FF0F3CF20F0F4CF25
:1000180021F0F2A412EF00F014EF00F062EF00F00C
:10002800F294060ED66E000E806E000E836E3D5062
:10003800D8A421EF00F023EF00F027EF00F032C042
:1000480083FF47EF00F0340E3D24D96EDA6A000EC4
:10005800DA22DF501B6E1C6A280E1B24D96E000E94
:100068001C20DA6EDF501D6E030E3D18D8B43FEF2A
:1000780000F042EF00F0010E43EF00F0000E800D9B
:10008800F3501D24836E3DC01BF03350010DF3CF98
:100098001CF01B2A52EF00F0D8901C361B2E50EF94
:1000A80000F01C50806E3D2A030E3D645EEF00F0A8
:1000B80060EF00F062EF00F0000E3D6E9EAC67EF5F
:1000C80000F069EF00F0A3EF00F09E9CC350C4CF8E
:1000D8001BF01C6A1BC01CF01B6A1B26000E1C228E
:1000E8001BC001F01CC002F0000E02BEFF0E036E22
:1000F800046E880E056E130E066E000E076E000E57
:10010800086E92EC02F001C00DF002C00EF003C0C0
:100118000FF004C010F0FF0E116E030E126E000EE9
:10012800136E000E146E74EC01F00DC038F00EC0A2
:1001380039F00FC03AF010C03BF0010E3C6EF2A24D
:10014800A8EF00F0AAEF00F0B9EF00F0F292330444
:10015800D8A4B1EF00F0B3EF00F0B7EF00F0000E55
:10016800336EB9EF00F0010E336E21C0F4FF20C0EA
:10017800F3FF1FC0DAFF1EC0D9FF3E921100C7EF80
:1001880002F0000E0F01386FF00E926E000E806EB6
:10019800000E396F9368000E3B6F000E956E000ECF
:1001A800836E020E3C6F070E966EA10EC06E000E97
:1001B800C16E1B0EC26EC30ED56E060ED66E9D8C1A
:1001C8009F8CF19CF288F28AF184F28E3C04D8A4C8
:1001D800F0EF00F0F2EF00F0EAEF00F0000E3C6EF6
:1001E80038C068F039C069F03AC06AF03BC06BF0BB
:1001F800E80E00016C6F030E6D6F000E6E6F000E3F
:100208006F6FFAEC01F000016851376EE80E646F09
:10021800030E656F000E666F000E676F38C060F0E2
:1002280039C061F03AC062F03BC063F04DEC02F0B7
:1002380060C068F061C069F062C06AF063C06BF0CA
:10024800640E00016C6F000E6D6F000E6E6F000E75
:100258006F6FFAEC01F000016851366E640E646F3E
:10026800000E656F000E666F000E676F38C060F095
:1002780039C061F03AC062F03BC063F04DEC02F067
:1002880060C068F061C069F062C06AF063C06BF07A
:100298000A0E00016C6F000E6D6F000E6E6F000E7F
:1002A8006F6FFAEC01F000016851356E38C060F0EC
:1002B80039C061F03AC062F03BC063F00A0E646F67
:1002C800000E656F000E666F000E676F4DEC02F052
:1002D80000016051346EC282EAEF00F0C3EF00F013
:1002E800000E166E14BE7DEF01F07BEF01F087EF74
:1002F80001F0141E131E121E116C000E122213227E
:100308001422010E166E10BE8EEF01F08CEF01F074
:1003180098EF01F0101E0F1E0E1E0D6C000E0E221F
:100328000F221022010E161A000E176E000E186EFC
:10033800000E196E000E1A6E1150121013101410C0
:10034800D8B4A9EF01F0ABEF01F0E1EF01F0010E35
:10035800156EB5EF01F0D8901136123613361436F3
:10036800152A14AEBAEF01F0BCEF01F0AFEF01F0BF
:10037800D8901736183619361A3611500D5C1250A7
:100388000E5813500F5814501058D8A0CEEF01F043
:10039800D0EF01F0D9EF01F011500D5E12500E5A56
:1003A80013500F5A1450105A1780D8901432133221
:1003B80012321132152EBCEF01F01650D8B4E7EF07
:1003C80001F0E9EF01F0F1EF01F01A1E191E181EF5
:1003D800176C000E182219221A2217C00DF018C027
:1003E8000EF019C00FF01AC010F01200000E236EA4
:1003F800000E246E000E256E000E266E00016C5154
:100408006D116E116F11D8B40CEF02F00EEF02F0FF
:1004180044EF02F0010E276E18EF02F0D8906C3707
:100428006D376E376F37272A6FAF1DEF02F01FEF5A
:1004380002F012EF02F0D8902336243625362636FD
:100448006C51685D6D5169596E516A596F516B599C
:10045800D8A031EF02F033EF02F03CEF02F06C511C
:10046800685F6D51695B6E516A5B6F516B5B23808E
:10047800D8906F336E336D336C33272E1FEF02F035
:1004880023C068F024C069F025C06AF026C06BF06C
:10049800120000016451651166116711D8B457EF55
:1004A80002F059EF02F089EF02F0010E226E63EFBD
:1004B80002F0D8906437653766376737222A67AF06
:1004C80068EF02F06AEF02F05DEF02F06451605DE0
:1004D800655161596651625967516359D8A077EFE0
:1004E80002F079EF02F081EF02F06451605F65512C
:1004F800615B6651625B6751635BD89067336633B3
:1005080065336433222E6AEF02F060C060F061C088
:1005180061F062C062F063C063F01200000E096E01
:10052800000E0A6E000E0B6E000E0C6E01A09FEFFF
:1005380002F0A1EF02F0A9EF02F0055009260650DB
:100548000A2207500B2208500C22D890053606368E
:1005580007360836D890043203320232013201508D
:10056800021003100410D8A4BCEF02F0BEEF02F092
:100578009AEF02F009C001F00AC002F00BC003F0C4
:100588000CC004F01200C40EF66E050EF76E000ED5
:10059800F86E00EE28F010EE0CF00900F5CFEEFF33
:1005A800E550E150FAE100EE34F00A0EEE6AE80692
:1005B800FDE13E903E920001C5EF00F03F065B4F23
:0805C800666D7D077F6F1C01C9
:020000040020DA
:08000000FFFFFFFFFFFFFFFF00
:020000040030CA
:0E000000FF221F3CFFBF85FF0FC00FE00F4027
:00000001FF
