:0400000068EF00F0B5
:100008003882D9CF04F0DACF05F0F3CF06F0F4CF79
:1000180007F0F2A412EF00F014EF00F05EEF00F02A
:10002800F294060ED66E000E806E3750D8A41FEFDD
:1000380000F021EF00F025EF00F02EC083FF45EF20
:1000480000F02F0E3724D96EDA6A000EDA22DF505C
:10005800016E026A240E0124D96E000E0220DA6EA7
:10006800DF50036E030E3718D8B43DEF00F040EFB1
:1000780000F0010E41EF00F0000E800DF350032454
:10008800836E37C001F0010E026E012A4EEF00F0B8
:10009800D8900236012E4CEF00F00250806E372ABD
:1000A800030E37645AEF00F05CEF00F05EEF00F0EB
:1000B800000E376E07C0F4FF06C0F3FF05C0DAFF75
:1000C80004C0D9FF3892110090EF02F0000E0F0122
:1000D800386FF00E926E000E806E000E3B6F000EB1
:1000E800956E000E836E020E3C6F070E966EA10E83
:1000F800C06E000EC16E1B0EC26EC30ED56E060E0C
:10010800D66EF28AF184F28EC2B28DEF00F08FEFD4
:1001180000F0C7EF00F0C350C4CF22F0236A22C01A
:1001280023F0226A2226000E232222C008F023C0D0
:1001380009F0000E09BEFF0E0A6E0B6E880E0C6EDB
:10014800130E0D6E000E0E6E000E0F6E5BEC02F0BD
:1001580008C014F009C015F00AC016F00BC017F05B
:10016800FF0E186E030E196E000E1A6E000E1B6E2F
:100178003FEC01F014C033F015C034F016C035F070
:1001880017C036F0C28233C011F034C012F035C047
:1001980013F036C014F0E80E156E030E166E000E3E
:1001A800176E000E186EC5EC01F01150326EE80E95
:1001B8000C6E030E0D6E000E0E6E000E0F6E33C029
:1001C80008F034C009F035C00AF036C00BF017EC5F
:1001D80002F008C011F009C012F00AC013F00BC0F9
:1001E80014F0640E156E000E166E000E176E000EDB
:1001F800186EC5EC01F01150316E640E0C6E000ED5
:100208000D6E000E0E6E000E0F6E33C008F034C077
:1002180009F035C00AF036C00BF017EC02F008C040
:1002280011F009C012F00AC013F00BC014F00A0E46
:10023800156E000E166E000E176E000E186EC5ECC9
:1002480001F01150306E33C008F034C009F035C0E9
:100258000AF036C00BF00A0E0C6E000E0D6E000E82
:100268000E6E000E0F6E17EC02F008502F6E88EF1E
:1002780000F068EF00F0000E1D6E1BBE48EF01F0A5
:1002880046EF01F052EF01F01B1E1A1E191E186CE2
:10029800000E19221A221B22010E1D6E17BE59EFDD
:1002A80001F057EF01F063EF01F0171E161E151E3F
:1002B800146C000E152216221722010E1D1A000EAC
:1002C8001E6E000E1F6E000E206E000E216E18505E
:1002D80019101A101B10D8B474EF01F076EF01F062
:1002E800ACEF01F0010E1C6E80EF01F0D8901836CB
:1002F80019361A361B361C2A1BAE85EF01F087EF1C
:1003080001F07AEF01F0D8901E361F3620362136DC
:100318001850145C195015581A5016581B50175875
:10032800D8A099EF01F09BEF01F0A4EF01F018506D
:10033800145E1950155A1A50165A1B50175A1E8017
:10034800D8901B321A32193218321C2E87EF01F05E
:100358001D50D8B4B2EF01F0B4EF01F0BCEF01F0DA
:10036800211E201E1F1E1E6C000E1F22202221226D
:100378001EC014F01FC015F020C016F021C017F0E1
:100388001200000E196E000E1A6E000E1B6E000E83
:100398001C6E1550161017101810D8B4D6EF01F0AF
:1003A800D8EF01F00EEF02F0010E1D6EE2EF01F042
:1003B800D89015361636173618361D2A18AEE7EFB8
:1003C80001F0E9EF01F0DCEF01F0D89019361A36A8
:1003D8001B361C361550115C1650125817501358FE
:1003E80018501458D8A0FBEF01F0FDEF01F006EF0C
:1003F80002F01550115E1650125A1750135A185021
:10040800145A1980D89018321732163215321D2E08
:10041800E9EF01F019C011F01AC012F01BC013F077
:100428001CC014F012000C500D100E100F10D8B490
:1004380020EF02F022EF02F052EF02F0010E106EF0
:100448002CEF02F0D8900C360D360E360F36102AE7
:100458000FAE31EF02F033EF02F026EF02F00C504E
:10046800085C0D5009580E500A580F500B58D8A068
:1004780040EF02F042EF02F04AEF02F00C50085E43
:100488000D50095A0E500A5A0F500B5AD8900F3275
:100498000E320D320C32102E33EF02F008C008F085
:1004A80009C009F00AC00AF00BC00BF01200000ED8
:1004B800106E000E116E000E126E000E136E08A064
:1004C80068EF02F06AEF02F072EF02F00C501026AB
:1004D8000D5011220E5012220F501322D8900C36B4
:1004E8000D360E360F36D8900B320A3209320832E2
:1004F800085009100A100B10D8A485EF02F087EFF6
:1005080002F063EF02F010C008F011C009F012C049
:100518000AF013C00BF01200560EF66E050EF76EB9
:10052800000EF86E00EE24F010EE0BF00900F5CF87
:10053800EEFFE550E150FAE100EE2FF0090EEE6A09
:10054800E806FDE13890389200016AEF00F03F06B6
:090558005B4F666D7D077F6F1C8F
:020000040020DA
:08000000FFFFFFFFFFFFFFFF00
:020000040030CA
:0E000000FF221F3CFFBF85FF0FC00FE00F4027
:00000001FF
