:04000000DBEF06F03C
:1006000000202048454C4C4F20574F524C4421204D
:100610002000256400001FBE10EF03F013EF03F06D
:10062000010E14EF03F0000E286E2850D8B41BEF13
:1006300003F01DEF03F021EF03F01E6C1F1ED8B076
:100640001F2A57BE28EF03F026EF03F02EEF03F02A
:10065000000E236E010E226E32EF03F056C022F020
:1006600057C023F054C024F055C025F02850D8B40A
:100670003CEF03F03EEF03F055EF03F02406D8A063
:1006800025062850D8A447EF03F049EF03F04FEFB9
:1006900003F0000E216E2B0E206E53EF03F0000EC0
:1006A000216E2D0E206E20C028F0000E276E1F0E2A
:1006B000266E000E00017F6F8EEF03F02606D8A095
:1006C0002706600E2624D96E000E2720DA6E1EC083
:1006D00001F01FC002F0000E046E0A0E036E2DEC36
:1006E00005F001C007F002C008F0FCEC06F007506E
:1006F000300FDF6E2206D8A023062406D8A02506D8
:100700001EC001F01FC002F0000E046E0A0E036E40
:10071000CBEC04F001C01EF002C01FF027BE99EF21
:1007200003F0275008E12604D8A099EF03F09BEFCF
:1007300003F0B1EF03F01E501F10D8A4A2EF03F096
:10074000A4EF03F05EEF03F023BEB1EF03F02350FC
:1007500006E12204D8B0AFEF03F0B1EF03F05EEF93
:1007600003F02850D8B4B7EF03F0B9EF03F0C4EFAB
:1007700003F02606D8A02706600E2624D96E000EA8
:100780002720DA6E28C0DFFF1CC011F01DC012F058
:10079000600E2624136E000E2720146E24C015F060
:1007A00025C016F0CAEC05F012002BC0D9FF2CC0F2
:1007B000DAFFDECFF6FFDDCFF7FF0800F550250AA0
:1007C000D8A4E5EF03F0E7EF03F051EF04F02BC0FE
:1007D000D9FF2CC0DAFFDE2A000EDD22000E556E96
:1007E000000E546E54C05AF0566857682BC0D9FF9B
:1007F0002CC0DAFFDECF35F0DDCF36F035C0F6FFA6
:1008000036C0F7FF0800F550640AD8B40AEF04F0C8
:100810000CEF04F01AEF04F035C0F6FF36C0F7FF16
:100820000800F550690AD8A418EF04F01AEF04F094
:1008300048EF04F02DC0D9FF2EC0DAFFDFCF2FF034
:10084000020EDE26DFCF30F0000EDD222FC0D9FFF2
:1008500030C0DAFFDECF31F0DDCF32F0010E3524CB
:100860002F6E000E3620306E2BC0D9FF2CC0DAFF61
:100870002FC0DEFF30C0DDFF29C01CF02AC01DF0F4
:1008800031C01EF032C01FF00BEC03F065EF04F036
:100890002BC0D9FF2CC0DAFFDE2A000EDD2265EF67
:1008A00004F02BC0D9FF2CC0DAFFDECFF6FFDDCF7E
:1008B000F7FF0800F550016E026A29C003F02AC054
:1008C00004F066EC04F048EF04F01200035004104A
:1008D000D8B46DEF04F06FEF04F078EF04F003503C
:1008E0000410D8A476EF04F078EF04F07DEF04F064
:1008F000015056EC07F0CAEF04F020EE0AF0035066
:10090000D9260450DA22DE50DE10D8B48AEF04F083
:100910008CEF04F0A7EF04F020EE0AF00350D92684
:100920000450DA2210EE03F00350E1260450E222D4
:10093000DE50E65CE650800A096EDE50800A0958F7
:10094000D8B0A5EF04F0A7EF04F0CAEF04F020EE52
:1009500003F00350D9260450DA22DECF05F0DDCFB4
:1009600006F003C0D9FF04C0DAFFDECF07F0DDCF09
:1009700008F005500724D96E06500820DA6E01C031
:10098000DFFF20EE03F00350D9260450DA22DE2ADE
:10099000000EDD221200000E066E04BED4EF04F03D
:1009A000D2EF04F0DAEF04F0036C041ED8B0042A8E
:1009B000010E066E02BEE1EF04F0DFEF04F0E7EF98
:1009C00004F0016C021ED8B0022A010E061A000EB5
:1009D000086E000E076E03500410D8B4F2EF04F056
:1009E000F4EF04F01CEF05F0010E056EFCEF04F0CF
:1009F000D89003360436052A04AE01EF05F003EF64
:100A000005F0F8EF04F0D890073608360350015C83
:100A100004500258D8A00FEF05F011EF05F016EFC3
:100A200005F00350015E0450025A0780D89004324A
:100A30000332052E03EF05F00650D8B422EF05F07F
:100A400024EF05F028EF05F0076C081ED8B0082A3F
:100A500007C001F008C002F01200000E066E02BED0
:100A600036EF05F034EF05F03CEF05F0016C021EA7
:100A7000D8B0022A010E066E04BE43EF05F041EF26
:100A800005F047EF05F0036C041ED8B0042A0350AC
:100A90000410D8B44EEF05F050EF05F074EF05F0F8
:100AA000010E056E58EF05F0D89003360436052A7E
:100AB00004AE5DEF05F05FEF05F054EF05F0035075
:100AC000015C04500258D8A068EF05F06AEF05F009
:100AD0006EEF05F00350015E0450025AD8900432C4
:100AE0000332052E5FEF05F00650D8B47AEF05F01B
:100AF0007CEF05F080EF05F0016C021ED8B0022AF1
:100B000001C001F002C002F01200000E0F01396FA7
:100B1000C00E936E07EC06F039EC07F0000E4FECB8
:100B200007F0010E036E060E046E3CEC06F0340E68
:100B3000536EF20EE82EFED7532EFCD7800E3F6E7A
:100B4000000E406E120E416E060E426E58C043F00B
:100B500059C044F093EC06F0400E4FEC07F0800EC5
:100B6000036E000E046E3CEC06F0584A592AE80E5B
:100B7000585C030E5958D8A0C0EF05F0C2EF05F03D
:100B800097EF05F0000E596E000E586E97EF05F0C6
:100B900000EF00F016BECFEF05F0D1EF05F0D7EF74
:100BA00005F015C01AF016C01BF0DBEF05F0000EC3
:100BB0001B6E000E1A6E000E196E000E186EEDEF11
:100BC00005F0000E026E200E016E11C003F012C07F
:100BD00004F066EC04F0184A192A1A50185C1950EF
:100BE000800A176E1B50800A1758D8A0FAEF05F03C
:100BF000FCEF05F0E1EF05F013C00AF014C00BF0B4
:100C000011C00CF012C00DF0B9EC06F01200819882
:100C1000819A270E046EF50EE82EFED7042EFCD71F
:100C200000F08150F00B030F816E818A819A0D0EC6
:100C3000046EFC0EE82EFED7042EFCD7818A819A22
:100C4000850EE82EFED700F0818A819A850EE82E67
:100C5000FED700F08150F00B020F816E818A819ADD
:100C6000280E1CEC07F00C0E1CEC07F039EC07F01A
:100C7000060E1CEC07F01200818853EF06F003C04B
:100C8000F6FF04C0F7FFF86A050EF76403D008000A
:100C9000F55005D0F6CFE1FFF7CFE2FFE7501CECAF
:100CA00007F0034A042A03C0F6FF04C0F7FFF86AFE
:100CB000050EF76403D00800F55005D0F6CFE1FF2C
:100CC000F7CFE2FFE7500009D8A469EF06F06BEF19
:100CD00006F03FEF06F0120039C03DF03AC03EF09A
:100CE00080EF06F037C029F038C02AF03D0E2B6E99
:100CF000000E2C6E3BC02DF03CC02EF0D5EC03F066
:100D00003DC0F6FF3EC0F7FF0800F5500009D8A42B
:100D10008CEF06F08EEF06F072EF06F0000E386EE4
:100D2000000E376E1200430E456E000E466E3FC039
:100D300047F040C048F0000E4B6E000E4A6E000EA9
:100D4000526E000E516E470E376E000E386E41C067
:100D500039F042C03AF0450E3B6E000E3C6E6CEC32
:100D600006F04A503F24D96E4B504020DA6EDF6ABD
:100D70001200000E106E000E0F6ECAEF06F00EC0CD
:100D800001F0026A0CC003F00DC004F066EC04F040
:100D90000F4A102A0F500A24D96E10500B20DA6E19
:100DA000DF500E6E0E50D8A4D8EF06F0DAEF06F042
:100DB000BFEF06F012008C0EF66E0E0EF76E000EF0
:100DC000F86E00EE80F010EE11F00900F5CFEEFFA6
:100DD000E550E150FAE100EE60F0200EEE6AE80620
:100DE000FDE100EE54F0070EEE6AE806FDE1000EAC
:100DF000F86E000185EF05F008BE09EF07F0085016
:100E000006E10704D8B007EF07F009EF07F017EF86
:100E100007F007C009F008C00AF0091E0A1E094AB7
:100E20000A2A09C007F00AC008F01BEF07F007C044
:100E300007F008C008F01200026E1A0EE82EFED766
:100E400000D002C001F0013A0F0E01160F0E01167C
:100E50008150F00B0124816E818A819A02C001F0D9
:100E60000F0E01168150F00B0124816E818A819A48
:100E700012008198010E1CEC07F0060E036E300E76
:100E8000E82EFED7032EFCD700D012002020202011
:0D0E900020202020202020202020202020B5
:100E9E00036E81980350800F1CEC07F012001200B5
:020000040020DA
:08000000FFFFFFFFFFFFFFFF00
:020000040030CA
:0E000000FF221F3CFFBF85FF0FC00FE00F4027
:00000001FF
