:0400000063EF17F0A3
:100600000030303A25342E32662030313A25342EEF
:1006100032662030323A25342E32662030333A2585
:10062000342E32662030343A25342E326600313092
:100630003A25342E32662031313A25342E32662066
:1006400031323A25342E32662031333A25342E3277
:10065000662031343A25342E32660030353A25345E
:100660002E32662030363A25342E32662030373A24
:1006700025342E32662030383A25342E326620302A
:10068000393A25342E32660031353A25342E326619
:100690002031363A25342E32662031373A25342E31
:1006A00032662031383A25342E32662031393A25E7
:1006B000342E326600696E66006E616E0000000EB8
:1006C0000001816F36C084F037C085F038C086F0F5
:1006D00039C087F087BF71EF03F06FEF03F085EF4C
:1006E00003F0010E816F84C001F085C002F086C066
:1006F00003F087C004F00DEC18F001C084F002C0D4
:1007000085F003C086F004C087F0000E0001836FFF
:10071000000E826F58C071F059C072F08151D8B488
:1007200094EF03F096EF03F0AAEF03F08151D8A401
:100730009CEF03F09EEF03F0A4EF03F0000E676F51
:100740002B0E666FA8EF03F0000E676F2D0E666F1D
:1007500066C081F084C001F085C002F086C003F05D
:1007600087C004F073EC14F001040210D8A4BBEFAE
:1007700003F0BDEF03F0F0EF03F000018151D8B4B6
:10078000C4EF03F0C6EF03F0CFEF03F081C050F1E8
:100790007107D8A07207000E836F010E826F500E92
:1007A0008225016E010E8321026EB50E036E060EC8
:1007B000046ECEEC17F00001FD0E7127FF0E7223C0
:1007C00034C011F035C012F0500E136E010E146ECD
:1007D00071C015F072C016F0BAEC15F05BEF08F0BE
:1007E00084C001F085C002F086C003F087C004F029
:1007F00073EC14F001500210D8A401EF04F003EFE1
:1008000004F023EF04F000018151D8B40AEF04F0A2
:100810000CEF04F015EF04F081C050F17107D8A07F
:100820007207000E836F010E826F500E8225016EDB
:10083000010E8321026EB90E036E060E046ECEEC1D
:1008400017F0DBEF03F0000E0001886F000E896FD8
:10085000800E8A6F3F0E8B6F000E706F000E6F6FF1
:1008600084C001F085C002F086C003F087C004F0A8
:10087000000E056E000E066E000E076E000E086E6E
:100880000FEC16F0D8B047EF04F049EF04F028EF72
:1008900005F056EF04F073C088F074C089F075C09D
:1008A0008AF076C08BF000016F4B702B88C00FF080
:1008B00089C010F08AC011F08BC012F0000E136EC8
:1008C000000E146E200E156E410E166EBCEC0AF072
:1008D0000FC073F010C074F011C075F012C076F044
:1008E00000017351845D016E74518559026E75511A
:1008F0008659036E76518759046EB7EC16F004BE24
:100900008DEF04F004500310021009E1020E015CA7
:10091000D8A08DEF04F08FEF04F04BEF04F073C01C
:1009200028F074C029F075C02AF076C02BF084C07E
:100930002CF085C02DF086C02EF087C02FF0F1EC92
:1009400013F0D8A0A6EF04F0A8EF04F04BEF04F0EA
:1009500000018851845D016E89518559026E8A516A
:100960008659036E8B518759046EB7EC16F004BE9E
:10097000C7EF04F004500310021007E1020E015CFF
:10098000D8B0C5EF04F0C7EF04F00FEF05F088C052
:1009900084F089C085F08AC086F08BC087F028EF8C
:1009A00005F088C001F089C002F08AC003F08BC056
:1009B00004F0000E056E000E066E200E076E410E4E
:1009C000086ED1EC0CF001C088F002C089F003C0C1
:1009D0008AF004C08BF000016F07D8A0700788511F
:1009E000845D016E89518559026E8A518659036E64
:1009F0008B518759046EB7EC16F004BE0DEF05F06D
:100A000004500310021007E1020E015CD8B00BEF96
:100A100005F00DEF05F00FEF05F0C7EF04F084C00F
:100A200028F085C029F086C02AF087C02BF088C046
:100A30002CF089C02DF08AC02EF08BC02FF0F1EC85
:100A400013F0D8A026EF05F028EF05F0D1EF04F061
:100A50003AC069F069C06AF05BBE31EF05F033EF70
:100A600005F039EF05F05AC062F05BC063F03EEF6D
:100A700005F0000E0001636F060E626F62C06DF03C
:100A800063C06EF000016D4B6E2B660E6A19D8A420
:100A90004CEF05F04EEF05F06EEF05F070BF55EF2F
:100AA00005F053EF05F061EF05F0000E886F000EC2
:100AB000896F800E8A6F3F0E8B6F000E706F000E75
:100AC0006F6F670E6919D8B468EF05F06AEF05F02B
:100AD0006EEF05F06F516D2770516E23000E786F29
:100AE000000E776F84C079F085C07AF086C07BF005
:100AF00087C07CF088C073F089C074F08AC075F03C
:100B00008BC076F0FFEF05F079C001F07AC002F0FB
:100B10007BC003F07CC004F088C005F089C006F0FB
:100B20008AC007F08BC008F0D1EC0CF001C01AF0BD
:100B300002C01BF003C01CF004C01DF08BEC11F0D0
:100B40001AC07DF01BC07EF01CC07FF01DC080F07D
:100B50007DC001F07EC002F07FC003F080C004F0D1
:100B60006EEC13F001C06BF002C06CF079C028F09D
:100B70007AC029F07BC02AF07CC02BF07DC013F036
:100B80007EC014F07FC015F080C016F088C00FF052
:100B900089C010F08AC011F08BC012F0BCEC0AF0D2
:100BA0000FC02CF010C02DF011C02EF012C02FF08D
:100BB00089EC17F028C079F029C07AF02AC07BF0C0
:100BC0002BC07CF088C001F089C002F08AC003F01D
:100BD0008BC004F0000E056E000E066E200E076E30
:100BE000410E086ED1EC0CF001C088F002C089F013
:100BF00003C08AF004C08BF00001774B782B6D5155
:100C0000775D7851800A3B6E6E51800A3B58D8A0C0
:100C10000CEF06F00EEF06F084EF05F088C00FF041
:100C200089C010F08AC011F08BC012F0000E136E54
:100C3000000E146EA00E156E400E166EBCEC0AF07F
:100C40000FC07DF010C07EF011C07FF012C080F0A8
:100C500079C028F07AC029F07BC02AF07CC02BF044
:100C60007DC02CF07EC02DF07FC02EF080C02FF014
:100C7000F1EC13F0D8B03FEF06F041EF06F04CEF87
:100C800006F0000E00017D6F000E7E6F000E7F6F7C
:100C9000000E806F75EF06F079C001F07AC002F0A7
:100CA0007BC003F07CC004F07DC005F07EC006F080
:100CB0007FC007F080C008F00FEC16F0D8A063EFFB
:100CC00006F065EF06F075EF06F000016BB16BEF13
:100CD00006F06DEF06F075EF06F0000E7D6F000E6A
:100CE0007E6F000E7F6F000E806F84C001F085C0A4
:100CF00002F086C003F087C004F07DC005F07EC01E
:100D000006F07FC007F080C008F05CEC08F001C07E
:100D100079F002C07AF003C07BF004C07CF079C0A7
:100D200028F07AC029F07BC02AF07CC02BF0000E9E
:100D3000136E000E146E200E156E410E166E73C0EB
:100D40000FF074C010F075C011F076C012F0BCEC5A
:100D50000AF00FC02CF010C02DF011C02EF012C000
:100D60002FF0F1EC13F0D8A0B8EF06F0BAEF06F0D0
:100D7000E3EF06F000016F4B702B73C00FF074C0EF
:100D800010F075C011F076C012F0000E136E000E58
:100D9000146E200E156E410E166EBCEC0AF00FC0DC
:100DA00073F010C074F011C075F012C076F0660ECA
:100DB00000016A19D8A4DFEF06F0E1EF06F0E3EFD7
:100DC00006F06D4B6E2B73C088F074C089F075C04F
:100DD0008AF076C08BF06FC060F070C061F0000EDA
:100DE0000001686F000E656F000E646F000E786F73
:100DF000000E776FE1EF07F079C001F07AC002F0E2
:100E00007BC003F07CC004F088C005F089C006F008
:100E10008AC007F08BC008F0D1EC0CF001C01AF0CA
:100E200002C01BF003C01CF004C01DF08BEC11F0DD
:100E30001AC07DF01BC07EF01CC07FF01DC080F08A
:100E40007DC001F07EC002F07FC003F080C004F0DE
:100E50006EEC13F002BE38EF07F0025007E10A0E05
:100E6000015CD8B036EF07F038EF07F048EF07F035
:100E70007DC001F07EC002F07FC003F080C004F0AE
:100E80006EEC13F001C06BF002C06CF04DEF07F098
:100E9000000E00016C6F090E6B6F00016851D8A441
:100EA00054EF07F056EF07F07EEF07F061BF5DEFFC
:100EB00007F05BEF07F07EEF07F0500E8225D96E4A
:100EC000010E8321DA6E2E0EDF6E824B832B7107AB
:100ED000D8A07207010E686F7EEF07F0500E8225D2
:100EE000D96E010E8321DA6E300EDF6E824B832BBA
:100EF0007107D8A072076407D8A06507645165110F
:100F0000D8A485EF07F087EF07F06EEF07F0500EDB
:100F10008225D96E010E8321DA6E6B51300FDF6EA0
:100F2000824B832B7107D8A0720779C028F07AC052
:100F300029F07BC02AF07CC02BF07DC013F07EC06E
:100F400014F07FC015F080C016F088C00FF089C083
:100F500010F08AC011F08BC012F0BCEC0AF00FC088
:100F60002CF010C02DF011C02EF012C02FF089EC23
:100F700017F028C079F029C07AF02AC07BF02BC086
:100F80007CF088C001F089C002F08AC003F08BC0F9
:100F900004F0000E056E000E066E200E076E410E68
:100FA000086ED1EC0CF001C088F002C089F003C0DB
:100FB0008AF004C08BF000016007D8A06107774B6E
:100FC000782B6D51775D7851800A3B6E6E51800AA7
:100FD0003B58D8B0EEEF07F0F0EF07F0FEEF07F068
:100FE00083BFFCEF07F0835109E14B0E825DD8A06F
:100FF000FCEF07F0FEEF07F0FCEF06F0000E786F55
:101000004F0E776F500E7725D96E010E7821DA6E6C
:10101000DF6A500E3B6E010E3C6E82513B5E835187
:101020003C5A77513B24016E78513C20026E500EA1
:10103000036E010E046E82C005F083C006F03BEC27
:1010400017F000018251775D826F83517859836F69
:101050008151D8A42EEF08F031EF08F0010E32EFE5
:1010600008F0000E776F786B8151D8B43AEF08F032
:101070003CEF08F047EF08F08207D8A08307500E36
:101080008225D96E010E8321DA6E81C0DFFF775190
:10109000715F7851725B34C011F035C012F0500EA0
:1010A0008225136E010E8321146E71C015F072C07B
:1010B00016F0BAEC15F012000450800B0D6E0450BF
:1010C00004240F6E03AE67EF08F069EF08F06AEFD3
:1010D00008F00F800F50D8B470EF08F072EF08F0EE
:1010E00087EF08F00F28D8A478EF08F07AEF08F01F
:1010F00082EF08F0000E016E000E026E000E036E0D
:10110000000E046E038E000E046E8FEF08F0000ECA
:10111000016E000E026E000E036E000E046E08508B
:10112000800B0E6E0D500E18D8B499EF08F09BEF9F
:1011300008F09CEF08F00D8C085008240E6E07AEE6
:10114000A4EF08F0A6EF08F0A7EF08F00E800E500D
:10115000D8B4ADEF08F0AFEF08F0C4EF08F00E28F8
:10116000D8A4B5EF08F0B7EF08F0BFEF08F0000E15
:10117000056E000E066E000E076E000E086E078EDE
:10118000000E086ECCEF08F0000E056E000E066E25
:10119000000E076E000E086E0F500E5CD8B0D3EF35
:1011A00008F0D5EF08F0FCEF08F00DACDAEF08F02E
:1011B000DCEF08F0DEEF08F0800E0D1A0FC010F023
:1011C0000EC00FF010C00EF001C010F005C001F00D
:1011D00010C005F002C010F006C002F010C006F00A
:1011E00003C010F007C003F010C007F004C010F0F7
:1011F00008C004F010C008F0000E106E0F500EC0B2
:1012000009F00A6A095E000E0A5A0ABE11EF09F0D7
:101210000A5009E11A0E095CD8A011EF09F013EF8A
:1012200009F04AEF09F00150021003100410D8A48D
:101230001CEF09F01FEF09F0010E20EF09F0000E7E
:10124000106E000E016E000E026E000E036E000E98
:10125000046E0EC00FF053EF09F010A032EF09F04A
:1012600034EF09F03AEF09F0D89010300109106E10
:101270003CEF09F0D890103201A041EF09F043EFA4
:1012800009F044EF09F0108E0434043203320232C4
:1012900001320F2A0E500F5CD8A051EF09F053EF26
:1012A00009F02DEF09F00DBC58EF09F05AEF09F0E5
:1012B0009AEF09F00F50D8A460EF09F062EF09F03F
:1012C0006CEF09F0000E016E000E026E000E036E50
:1012D000000E046EBBEF0AF00550012606500222F4
:1012E000075003220850042204A079EF09F07BEF95
:1012F00009F027EF0AF010A080EF09F082EF09F063
:1013000088EF09F0D89010300109106E8AEF09F0CB
:10131000D890103201A08FEF09F091EF09F092EF11
:1013200009F0108E043404320332023201320F2AE3
:1013300027EF0AF00550015C065002580750035889
:101340000450800A096E0850800A0958D8B0ABEFE3
:1013500009F0ADEF09F0D8EF09F00150055C096E16
:10136000025006580A6E035007580B6E0450085876
:101370000C6EFF0E0924016EFF0E0A20026EFF0E96
:101380000B20036EFF0E0C20046E800E0D1A106CE5
:101390001050D8A4CEEF09F0D0EF09F0E0EF09F03B
:1013A000010E0126000E022203220422E0EF09F0C2
:1013B0000550015E0650025A0750035A0850045A5D
:1013C0000150021003100410D8A4E9EF09F0EBEF6C
:1013D00009F020EF0AF01050D8A4F1EF09F0F3EF74
:1013E00009F020EF0AF0000E016E000E026E000EF2
:1013F000036E000E046EBBEF0AF0D8900136023681
:101400000336043610AE07EF0AF009EF0AF00AEFD0
:101410000AF0018010A00FEF0AF011EF0AF015EFAB
:101420000AF0D880103617EF0AF0D89010360F5017
:10143000D8B41DEF0AF01FEF0AF020EF0AF00F06F4
:1014400003AE25EF0AF027EF0AF0FDEF09F0000EDA
:101450000E6E10AE2EEF0AF030EF0AF048EF0AF0F1
:1014600010C009F07F0E0916D8B439EF0AF03BEF2F
:101470000AF03FEF0AF0010E0E6E48EF0AF001A0ED
:1014800044EF0AF046EF0AF048EF0AF03BEF0AF0AB
:101490000E50D8B44EEF0AF050EF0AF07BEF0AF08E
:1014A000010E0126000E02220322042204A05BEF9B
:1014B0000AF05DEF0AF07BEF0AF001C009F002C00C
:1014C0000AF003C00BF004C00CF00C340C320B32E9
:1014D0000A32093209C001F00AC002F00BC003F061
:1014E0000CC004F00F28D8B478EF0AF07AEF0AF0B5
:1014F0007BEF0AF00F2A0F28D8B481EF0AF083EFB0
:101500000AF08BEF0AF00F50D8A489EF0AF08BEFA6
:101510000AF09DEF0AF0000E016E000E026E000E42
:10152000036E000E046E0F50D8A499EF0AF09BEFE3
:101530000AF09DEF0AF0000E0D6E0FA0A2EF0AF068
:10154000A4EF0AF0A7EF0AF0038EA8EF0AF0039EBB
:10155000D8900F30046E0DAEB0EF0AF0B2EF0AF083
:10156000B3EF0AF0048E01C001F002C002F003C024
:1015700003F004C004F012001250800B1B6E1250D6
:101580001224216E11AEC7EF0AF0C9EF0AF0CAEFBC
:101590000AF021802150D8B4D0EF0AF0D2EF0AF03F
:1015A000E5EF0AF02128D8A4D8EF0AF0DAEF0AF024
:1015B000E2EF0AF0000E0F6E000E106E000E116EBC
:1015C000000E126E118EEDEF0AF0000E0F6E000E7F
:1015D000106E000E116E000E126E1650800B1B1A4C
:1015E00016501624206E15AEF8EF0AF0FAEF0AF046
:1015F000FBEF0AF020802050D8B401EF0BF003EF8E
:101600000BF016EF0BF02028D8A409EF0BF00BEF2E
:101610000BF013EF0BF0000E136E000E146E000EA5
:10162000156E000E166E158E1EEF0BF0000E136E6B
:10163000000E146E000E156E000E166E2050D8B4FB
:1016400024EF0BF026EF0BF02EEF0BF02150D8A477
:101650002CEF0BF02EEF0BF038EF0BF0000E0F6EAF
:10166000000E106E000E116E000E126ED0EF0CF018
:1016700015500F02F3CF26F0F4CF27F026501C6E42
:101680001D6A1E6A1F6A2750226E236A246A256A11
:1016900014501002F3CF26F0F4CF27F026501C266A
:1016A000000E1D221E221F2227502226000E23225A
:1016B0002422252213501102F3CF26F0F4CF27F075
:1016C00026501C26000E1D221E221F2227502226D5
:1016D000000E2322242225221EC01FF01DC01EF052
:1016E0001CC01DF01C6A13501002F3CF26F0F4CF7B
:1016F00027F026501C2627501D22000E1E22000E09
:101700001F2214500F02F3CF26F0F4CF27F02650FB
:101710001C2627501D22000E1E22000E1F221EC056
:101720001FF01DC01EF01CC01DF01C6A13500F02DC
:10173000F3CF26F0F4CF27F026501C2627501D2289
:10174000000E1E22000E1F2215501002F3CF26F0AD
:10175000F4CF27F02650222627502322000E2422E1
:10176000000E252214501102F3CF26F0F4CF27F0FB
:101770002650222627502322000E2422000E252246
:1017800015501102F3CF26F0F4CF27F02650176E34
:101790002750186E196A1A6A19C01AF018C019F081
:1017A00017C018F0176A1750222618502322195014
:1017B00024221A5025221CC017F01DC018F01EC08C
:1017C00019F01FC01AF0190EEBEF0BF0D8901A3277
:1017D000193218321732E82EE6EF0BF01750222696
:1017E00018502322195024221A5025221EC01FF0FF
:1017F0001DC01EF01CC01DF01C6A205021C017F037
:10180000186A1726000E1822820E1724266EFF0E65
:101810001820276E21EF0CF0D8902236233624367C
:1018200025361FAE16EF0CF018EF0CF019EF0CF088
:101830002280D8901C361D361E361F362606D8A0AC
:10184000270624AE26EF0CF028EF0CF00CEF0CF07E
:10185000000E206E1FAE2FEF0CF031EF0CF055EFA5
:101860000CF0FF0E1C14176EFF0E1D14186EFF0EE9
:101870001E14196E7F0E1F141A6E175018101910AF
:101880001A10D8B446EF0CF048EF0CF04CEF0CF007
:10189000010E206E55EF0CF022A051EF0CF053EF2B
:1018A0000CF055EF0CF048EF0CF02050D8B45BEF83
:1018B0000CF05DEF0CF081EF0CF0010E2226000E13
:1018C00023222422252225A068EF0CF06AEF0CF0D9
:1018D00081EF0CF022C017F023C018F024C019F0DB
:1018E00025C01AF01A341A3219321832173217C0BA
:1018F00022F018C023F019C024F01AC025F0264A9F
:10190000272A27BE8CEF0CF0275008E12628D8A004
:101910008CEF0CF08EEF0CF098EF0CF0000E226EB6
:10192000000E236E800E246E7F0E256EC6EF0CF027
:1019300027BEA5EF0CF0275006E12604D8B0A3EF90
:101940000CF0A5EF0CF0B1EF0CF0000E226E000EC3
:10195000236E000E246E000E256E000E1B6EC6EF69
:101960000CF026C021F0FF0E2216FF0E23167F0E6C
:101970002416000E251621A0C0EF0CF0C2EF0CF0CB
:10198000C3EF0CF0248ED8902130256E1B50251209
:1019900022C00FF023C010F024C011F025C012F0B7
:1019A00012000450800B116E04500424186E03AE14
:1019B000DCEF0CF0DEEF0CF0DFEF0CF018801850CD
:1019C000D8B4E5EF0CF0E7EF0CF0FCEF0CF01828C2
:1019D000D8A4EDEF0CF0EFEF0CF0F7EF0CF0000EE9
:1019E000016E000E026E000E036E000E046E038E7A
:1019F000000E046E04EF0DF0000E016E000E026E7C
:101A0000000E036E000E046E0850800B111A085071
:101A10000824196E07AE0FEF0DF011EF0DF012EF65
:101A20000DF019801950D8B418EF0DF01AEF0DF021
:101A30002FEF0DF01928D8A420EF0DF022EF0DF0B4
:101A40002AEF0DF0000E056E000E066E000E076EFA
:101A5000000E086E078E000E086E37EF0DF0000EB8
:101A6000056E000E066E000E076E000E086E055025
:101A7000061007100810D8A440EF0DF042EF0DF04B
:101A80005AEF0DF0000E016E000E026E000E036E96
:101A9000000E046E800E03127F0E04121150041209
:101AA00001C001F002C002F003C003F004C004F062
:101AB0009DEF0EF01850D8A460EF0DF062EF0DF01E
:101AC0006CEF0DF0000E016E000E026E000E036E44
:101AD000000E046E9DEF0EF0195018C009F00A6A4E
:101AE000095E000E0A5A7F0E0924126E000E0A20AB
:101AF000136E01C00DF002C00EF003C00FF004C061
:101B000010F0000E016E000E026E000E036E000E4D
:101B1000046E000E146E000E156E000E166E000E92
:101B2000176E000E196ECDEF0DF01950D8B49BEF63
:101B30000DF09DEF0DF0B4EF0DF0D8900D360E3690
:101B40000F361036D890013602360336043617AEFB
:101B5000ACEF0DF0AEEF0DF0AFEF0DF00180D890CF
:101B6000143615361636173605500D5C06500E58CD
:101B700007500F5808501058D8A0C1EF0DF0C3EF10
:101B80000DF0CCEF0DF0178C05500D5E06500E5A7F
:101B900007500F5A0850105A192A190E1964D3EF1A
:101BA0000DF0D5EF0DF095EF0DF00D500E100F105C
:101BB0001010D8B4DEEF0DF0E0EF0DF0F8EF0DF0FF
:101BC0001480F8EF0DF0D890013602360336043653
:101BD00017AEEDEF0DF0EFEF0DF0F0EF0DF001802F
:101BE000D89014361536163617361206D8A01306B6
:101BF00003AEFDEF0DF0FFEF0DF0E3EF0DF0000E83
:101C0000196E17AE06EF0EF008EF0EF02CEF0EF087
:101C1000FF0E1414096EFF0E15140A6EFF0E161433
:101C20000B6E7F0E17140C6E09500A100B100C105F
:101C3000D8B41DEF0EF01FEF0EF023EF0EF0010EE3
:101C4000196E2CEF0EF001A028EF0EF02AEF0EF027
:101C50002CEF0EF01FEF0EF01950D8B432EF0EF04B
:101C600034EF0EF058EF0EF0010E0126000E0222A6
:101C70000322042204A03FEF0EF041EF0EF058EFD4
:101C80000EF001C009F002C00AF003C00BF004C05E
:101C90000CF00C340C320B320A32093209C001F05C
:101CA0000AC002F00BC003F00CC004F0124A132A61
:101CB00013BE63EF0EF0135008E11228D8A063EFB3
:101CC0000EF065EF0EF070EF0EF0000E136E12685E
:101CD000000E016E000E026E000E036E000E046E0A
:101CE00013BE7DEF0EF0135006E11204D8B07BEF67
:101CF0000EF07DEF0EF08BEF0EF0000E136E000E67
:101D0000126E000E016E000E026E000E036E000ECB
:101D1000046E000E116E12C018F018A092EF0EF0B3
:101D200094EF0EF097EF0EF0038E98EF0EF0039EF7
:101D3000D8901830046E4EEF0DF012002F0E0F01E8
:101D4000386F92683F0E396F9368FC0E3A6F946853
:101D5000000E3B6F800E956E070E3C6F7F0E966EE9
:101D6000A10EC06E000EC16E830EC216C280C2826A
:101D7000010E64EC16F0020E64EC16F0010E83EC1A
:101D800018F0020E83EC18F0010E056E000E93ECB5
:101D900018F0020E056E000E93EC18F031EF0FF004
:101DA000E1C056F056465646C2505618830B561898
:101DB000C26EC282C2B2DFEF0EF0E1EF0EF0DAEFD8
:101DC0000EF0C350C4CF56F0576A56C057F0566A4B
:101DD0005626000E57220001E151020DA00EF324F9
:101DE000D96E010EF420DA6E56C0DEFF57C0DDFF5B
:101DF000E151020DA00EF324D96E010EF420DA6E2B
:101E0000DECF56F0DDCF57F056C001F057C002F0DC
:101E1000036A046A000E94EC12F001C00FF002C0D5
:101E200010F003C011F004C012F00A0E136E280E59
:101E3000146EA00E156E3B0E166EBCEC0AF000017F
:101E4000E151040D000EF324D96E010EF420DA6E78
:101E50000FC0DEFF10C0DEFF11C0DEFF12C0DEFFCC
:101E6000E12B130E0001E16538EF0FF03AEF0FF0B0
:101E7000D0EF0EF0000EE16FB00E986F000E996F6C
:101E8000010E9A6F060E9B6F00C19CF001C19DF080
:101E900002C19EF003C19FF004C1A0F005C1A1F0F2
:101EA00006C1A2F007C1A3F008C1A4F009C1A5F0C2
:101EB0000AC1A6F00BC1A7F00CC1A8F00DC1A9F092
:101EC0000EC1AAF00FC1ABF010C1ACF011C1ADF062
:101ED00012C1AEF013C1AFF013EC17F0010E056E96
:101EE000000E93EC18F0B00E056E000E066E010E9B
:101EF000076E29EC18F0B00E0001986F000E996F74
:101F00005B0E9A6F060E9B6F14C19CF015C19DF07D
:101F100016C19EF017C19FF018C1A0F019C1A1F021
:101F20001AC1A2F01BC1A3F01CC1A4F01DC1A5F0F1
:101F30001EC1A6F01FC1A7F020C1A8F021C1A9F0C1
:101F400022C1AAF023C1ABF024C1ACF025C1ADF091
:101F500026C1AEF027C1AFF013EC17F0010E056EED
:101F6000400E93EC18F0B00E056E000E066E010EDA
:101F7000076E29EC18F0B00E0001986F000E996FF3
:101F80002E0E9A6F060E9B6F28C19CF029C19DF002
:101F90002AC19EF02BC19FF02CC1A0F02DC1A1F051
:101FA0002EC1A2F02FC1A3F030C1A4F031C1A5F021
:101FB00032C1A6F033C1A7F034C1A8F035C1A9F0F1
:101FC00036C1AAF037C1ABF038C1ACF039C1ADF0C1
:101FD0003AC1AEF03BC1AFF013EC17F0020E056E44
:101FE000000E93EC18F0B00E056E000E066E020E99
:101FF000076E29EC18F0B00E0001986F000E996F73
:10200000880E9A6F060E9B6F3CC19CF03DC19DF0FF
:102010003EC19EF03FC19FF040C1A0F041C1A1F080
:1020200042C1A2F043C1A3F044C1A4F045C1A5F050
:1020300046C1A6F047C1A7F048C1A8F049C1A9F020
:102040004AC1AAF04BC1ABF04CC1ACF04DC1ADF0F0
:102050004EC1AEF04FC1AFF013EC17F0020E056E9B
:10206000400E93EC18F0B00E056E000E066E020ED8
:10207000076E29EC18F031EF0FF000EF00F08EC082
:10208000D9FF8FC0DAFFDECFF6FFDDCFF7FF080004
:10209000F550250AD8A44FEF10F051EF10F076EF6D
:1020A00011F08EC0D9FF8FC0DAFFDE2A000EDD22CC
:1020B000000E596E000E586E58C05CF05A685B688E
:1020C0008EC007F08FC008F090C009F091C00AF0F0
:1020D00057EC15F007C058F008C059F059BE75EF1D
:1020E00010F073EF10F07AEF10F05C80586C591E0E
:1020F000D8B0592A8EC0D9FF8FC0DAFFDECFF6FFE5
:10210000DDCFF7FF0800F5502E0AD8A48AEF10F0B3
:102110008CEF10F0A1EF10F08EC0D9FF8FC0DAFF66
:10212000DE2A000EDD228EC007F08FC008F090C0BE
:1021300009F091C00AF057EC15F007C05AF008C03A
:102140005BF08EC0D9FF8FC0DAFFDECF44F0DDCF69
:1021500045F044C0F6FF45C0F7FF0800F5CF43F057
:10216000BEEF10F0444A452AD7EF10F06C0E436ED4
:10217000D7EF10F0000E436ED7EF10F043503D6ED6
:102180003E6A3E50000AD8B4C8EF10F0BAEF10F023
:102190003D504C0AD8B4B2EF10F02A0AD8B4B6EFCA
:1021A00010F00A0AD8B4B2EF10F0BAEF10F044C041
:1021B000F6FF45C0F7FF0800F550660AD8A4E3EF24
:1021C00010F0E5EF10F06DEF11F01BEF11F090C083
:1021D000D9FF91C0DAFFDFCF3DF0040EDE26DFCF5E
:1021E0003EF0000EDD223DC0D9FF3EC0DAFFDECF5B
:1021F0003FF0DECF40F0DECF41F0DECF42F030EFF7
:1022000011F090C0D9FF91C0DAFFDFCF3DF0040E8E
:10221000DE26DFCF3EF0000EDD223DC0D9FF3EC0FE
:10222000DAFFDECF3FF0DECF40F0DECF41F0DECF91
:1022300042F030EF11F043503D6E3E6A3E50000ACE
:10224000D8B425EF11F030EF11F03D504C0AD8B45E
:1022500001EF11F0200AD8B4E7EF10F030EF11F0E1
:10226000010E44243D6E000E45203E6E8EC0D9FF07
:102270008FC0DAFF3DC0DEFF3EC0DDFF57EF11F03B
:102280008CC034F08DC035F03FC036F040C037F020
:1022900041C038F042C039F044C0F6FF45C0F7FFF6
:1022A0000800F5CF3AF05FEC03F08AEF11F044C07C
:1022B000F6FF45C0F7FF0800F5503D6E3E6A3E5000
:1022C000000AD8B466EF11F06DEF11F03D50660AC8
:1022D000D8B440EF11F06DEF11F08EC0D9FF8FC070
:1022E000DAFFDE2A000EDD228AEF11F08EC0D9FF60
:1022F0008FC0DAFFDECFF6FFDDCFF7FF0800F55025
:10230000016E026A8CC003F08DC004F0F2EC14F090
:102310006DEF11F01200D9C02AF0DAC02BF0DBC04B
:102320002CF0DCC02DF01AC02AF01BC02BF01CC012
:102330002CF01DC02DF0810E1E6EFF0E1F6E2AC0E8
:1023400020F02BC021F02CC022F02DC023F0180E5D
:10235000AFEF11F0D8902332223221322032E82E12
:10236000AAEF11F020501E24286E000E1F20296EA7
:1023700029BEC4EF11F0295009E1170E285CD8A03E
:10238000C4EF11F0C6EF11F0D0EF11F01AC01AF03F
:102390001BC01BF01CC01CF01DC01DF093EF12F001
:1023A00029BED5EF11F0D7EF11F047EF12F028C09A
:1023B0001EF0FF0E1F6EFF0E206E7F0E216E000EB0
:1023C000226E1E66E6EF11F0EEEF11F0223422329B
:1023D000213220321F321E2EE1EF11F01FC024F0F7
:1023E00020C025F021C026F022C027F024502A1456
:1023F0001E6E25502B141F6E26502C14206E275055
:102400002D14216E1E501F1020102110D8A40BEF88
:1024100012F00DEF12F00FEF12F0C6EF11F02AC01C
:102420001EF02BC01FF02CC020F02DC021F0200E7C
:102430001FEF12F0D890213220321F321E32E82EC8
:102440001AEF12F01E501F1020102110D8B42BEFDD
:1024500012F02DEF12F035EF12F024502A262550FD
:102460002B2226502C2227502D22241C1E6E251C88
:102470001F6E261C206E271C216E1E502A161F5010
:102480002B1620502C1621502D168BEF12F02AC03F
:102490001EF02BC01FF02CC020F02DC021F0200E0C
:1024A00057EF12F0D890213220321F321E32E82E20
:1024B00052EF12F01E501F1020102110D8A463EF0D
:1024C00012F065EF12F06FEF12F0000E2A6E000EA0
:1024D0002B6E000E2C6E000E2D6E8BEF12F0D8902E
:1024E0002A341E6E2B341F6E2C34206E2D34216E38
:1024F0001E501F1020102110D8B481EF12F083EF6E
:1025000012F08BEF12F0000E2A6E000E2B6E800E72
:102510002C6EBF0E2D6E2AC01AF02BC01BF02CC0E3
:102520001CF02DC01DF01200096E0950D8B49BEFAD
:1025300012F09DEF12F0BFEF12F004BEA4EF12F004
:10254000A2EF12F0BFEF12F001C005F002C006F0DA
:1025500003C007F004C008F0051E061E071E081E73
:10256000052A000E06220722082205C00BF006C02D
:102570000CF007C00DF008C00EF0C7EF12F001C05C
:102580000BF002C00CF003C00DF004C00EF00150BF
:10259000021003100410D8A4D0EF12F0D2EF12F002
:1025A000DCEF12F0000E016E000E026E000E036EE4
:1025B000000E046E6DEF13F0960E0A6EE6EF12F049
:1025C0000A2AD8900E320D320C320B32000E0B1448
:1025D000056E000E0C14066E000E0D14076EFE0E36
:1025E0000E14086E0550061007100810D8A4FBEF53
:1025F00012F0FDEF12F0E0EF12F00BEF13F00A2AE9
:10260000010E0B26000E0C220D220E22D8900E3247
:102610000D320C320B32000E0B14056E000E0C1432
:10262000066E000E0D14076EFF0E0E14086E055098
:10263000061007100810D8A420EF13F022EF13F0B3
:10264000FFEF12F02AEF13F00A06D8900B360C3683
:102650000D360E360DBE2FEF13F031EF13F039EFBC
:1026600013F0020E0A6037EF13F039EF13F024EF86
:1026700013F00AB03EEF13F040EF13F041EF13F008
:102680000D9ED8900A320AC005F0066A076A086AE9
:1026900005C008F0076A066A056A05500B12065065
:1026A0000C1207500D1208500E120950D8B45BEFEF
:1026B00013F05DEF13F065EF13F004BE64EF13F059
:1026C00062EF13F065EF13F00E8E0BC001F00CC03B
:1026D00002F00DC003F00EC004F012000334043405
:1026E0000A6E0A50D8A477EF13F079EF13F083EF56
:1026F00013F0000E016E000E026E000E036E000E4F
:10270000046EF0EF13F001C005F002C006F003C044
:1027100007F004C008F0200E93EF13F0D8900832B1
:10272000073206320532E82E8EEF13F00550096E9F
:10273000038EFF0E0116FF0E0216FF0E0316000E8B
:102740000416960E0A5E0ABEAAEF13F0A8EF13F065
:10275000C0EF13F00A50800A970FD8B0B2EF13F011
:10276000B4EF13F0B6EF13F079EF13F0D890043212
:102770000332023201320A3EB6EF13F0D8EF13F003
:102780001F0E0A64C6EF13F0C8EF13F0D0EF13F07A
:1027900079EF13F0D89001360236033604360A0674
:1027A0000A50D8A4D6EF13F0D8EF13F0CAEF13F005
:1027B0000950D8B4DEEF13F0E0EF13F0E8EF13F0B8
:1027C000041E031E021E016C000E022203220422BC
:1027D00001C001F002C002F003C003F004C004F025
:1027E0001200000E2814306E000E2914316E800E77
:1027F0002A14326E7F0E2B14336E3050311032108B
:102800003310D8A406EF14F008EF14F010EF14F012
:10281000000E286E000E296E000E2A6E000E2B6E22
:10282000000E2C14306E000E2D14316E800E2E14FE
:10283000326E7F0E2F14336E305031103210331041
:10284000D8A425EF14F027EF14F02FEF14F0000EAA
:102850002C6E000E2D6E000E2E6E000E2F6E2BAE07
:1028600034EF14F036EF14F03FEF14F0286C291E0B
:10287000D8B0292A2A1ED8B02A2A800E2B562FAE6D
:1028800044EF14F046EF14F04FEF14F02C6C2D1EB3
:10289000D8B02D2A2E1ED8B02E2A800E2F56000E0C
:1028A000281A000E291A000E2A1A800E2B1A000E62
:1028B0002C1A000E2D1A000E2E1A800E2F1A2C50D4
:1028C000285C2D5029582E502A582F502B58D8B0FC
:1028D0006CEF14F06EEF14F071EF14F0D89072EF0B
:1028E00014F0D8801200DDC00BF0DEC00CF0DFC0A9
:1028F0000DF0E0C00EF001C00BF002C00CF003C000
:102900000DF004C00EF00BC005F00CC006F00DC0B9
:1029100007F00EC008F0180E93EF14F0D8900832AC
:10292000073206320532E82E8EEF14F00550096E9C
:102930000A6A09500A10D8A4A0EF14F0A2EF14F00C
:10294000C2EF14F0D8900B34056E0C34066E0D34C3
:10295000076E0E34086E0550061007100810D8A434
:10296000B4EF14F0B6EF14F0BCEF14F0000E026EEA
:10297000020E016EF1EF14F0000E026E030E016EF6
:10298000F1EF14F009280A10D8A4C9EF14F0CBEF26
:1029900014F0EDEF14F00BC005F00CC006F00DC004
:1029A00007F00EC008F0090ED89005360636073637
:1029B0000836E82ED4EF14F0055006100710081062
:1029C000D8B4E5EF14F0E8EF14F0010EE9EF14F0DD
:1029D000000E016E026AF1EF14F0000E026E040E9A
:1029E000016E120003500410D8B4F9EF14F0FBEF9D
:1029F00014F004EF15F003500410D8A402EF15F002
:102A000004EF15F009EF15F001509CEC18F056EFAB
:102A100015F020EE0AF00350D9260450DA22DE50D9
:102A2000DE10D8B416EF15F018EF15F033EF15F0EF
:102A300020EE0AF00350D9260450DA2210EE03F0FB
:102A40000350E1260450E222DE50E65CE650800AA4
:102A5000096EDE50800A0958D8B031EF15F033EF17
:102A600015F056EF15F020EE03F00350D926045070
:102A7000DA22DECF05F0DDCF06F003C0D9FF04C0B7
:102A8000DAFFDECF07F0DDCF08F005500724D96E5E
:102A900006500820DA6E01C0DFFF20EE03F003507D
:102AA000D9260450DA22DE2A000EDD221200000EA2
:102AB0000F6E000E0E6E07C0D9FF08C0DAFFDECF22
:102AC000F6FFDDCFF7FF0800F5502A0AD8A46BEF18
:102AD00015F06DEF15F0A1EF15F007C0D9FF08C094
:102AE000DAFFDE2A000EDD2209C0D9FF0AC0DAFFB4
:102AF000DFCF0BF0020EDE26DFCF0CF0000EDD2262
:102B00000BC0D9FF0CC0DAFFDECF0EF0DDCF0FF027
:102B1000B5EF15F00EC001F00FC002F0000E046E0C
:102B20000A0E036E70EC18F00D5001240E6E000EAC
:102B300002200F6E07C0D9FF08C0DAFFDE2A000EA0
:102B4000DD2207C0D9FF08C0DAFFDECFF6FFDDCFF8
:102B5000F7FF0800F550D00F0D6E090E0D64B3EFAE
:102B600015F0B5EF15F08AEF15F00EC007F00FC0A5
:102B700008F012005CA0BFEF15F0C1EF15F0CBEF2D
:102B800015F013C00AF014C00BF011C00CF012C005
:102B90000DF0ACEC17F016BED0EF15F0D2EF15F03B
:102BA000D8EF15F015C01AF016C01BF0DCEF15F0C9
:102BB000000E1B6E000E1A6E000E196E000E186EBF
:102BC000EEEF15F0000E026E200E016E11C003F044
:102BD00012C004F0F2EC14F0184A192A1A50185CCA
:102BE0001950800A176E1B50800A1758D8A0FBEFA7
:102BF00015F0FDEF15F0E2EF15F05CB002EF16F006
:102C000004EF16F00EEF16F013C00AF014C00BF02C
:102C100011C00CF012C00DF0ACEC17F01200000E59
:102C20000114096E000E02140A6E800E03140B6E5E
:102C30007F0E04140C6E09500A100B100C10D8A44F
:102C400024EF16F026EF16F02EEF16F0000E016EB0
:102C5000000E026E000E036E000E046E000E0514D0
:102C6000096E000E06140A6E800E07140B6E7F0E9E
:102C700008140C6E09500A100B100C10D8A443EF66
:102C800016F045EF16F04DEF16F0000E056E000E33
:102C9000066E000E076E000E086E055001180FE15B
:102CA000065002180CE10750031809E108500418F7
:102CB000D8B45DEF16F05FEF16F062EF16F0D89023
:102CC00063EF16F0D8801200086E83980804D8A429
:102CD0006CEF16F06EEF16F06FEF16F0839A020E9F
:102CE0000818D8A476EF16F078EF16F079EF16F002
:102CF000839C270E076EF50EE82EFED7072EFCD715
:102D000000F08350F00B030F836E085044EC18F072
:102D10000D0E076EFC0EE82EFED7072EFCD70850CE
:102D200044EC18F0850EE82EFED700F0085044EC75
:102D300018F0850EE82EFED700F08350F00B020F3E
:102D4000836E085044EC18F008C002F0280EEEEC38
:102D500017F008C002F00C0EEEEC17F0085083ECF0
:102D600018F008C002F0060EEEEC17F0120004BED8
:102D7000C6EF16F004500310021006E10104D8B0AB
:102D8000C4EF16F0C6EF16F0E1EF16F001C005F043
:102D900002C006F003C007F004C008F0051E061EBE
:102DA000071E081E052A000E06220722082205C05B
:102DB00001F006C002F007C003F008C004F0E9EF1C
:102DC00016F001C001F002C002F003C003F004C01D
:102DD00004F0120094C046F095C047F0FFEF16F0E3
:102DE00092C08CF093C08DF0460E00018E6F000EE5
:102DF0008F6F96C090F097C091F03FEC10F046C0F6
:102E0000F6FF47C0F7FF0800F5500009D8A40BEF04
:102E100017F00DEF17F0F0EF16F0000E0001936FB2
:102E2000000E926F12009C0E486E000E496E98C004
:102E30004AF099C04BF0000E4E6E000E4D6E000E23
:102E4000556E000E546E4A0E0001926F000E936F85
:102E50009AC094F09BC095F0480E966F000E976F45
:102E6000EAEC16F04D5000019825D96E4E5099218C
:102E7000DA6EDF6A120003C009F004C00AF001C074
:102E800007F002C008F055EF17F009C0D9FF0AC0DB
:102E9000DAFFDF500B6E094A0A2A07C0D9FF08C0C3
:102EA000DAFF0BC0DFFF074A082A0506D8A006068E
:102EB000052806E10628D8A460EF17F062EF17F0A6
:102EC00045EF17F01200B60EF66E300EF76E000EDC
:102ED000F86E00EEB0F010EE29F00900F5CFEEFF2D
:102EE000E550E150FAE101EE00F0C80EEE6AE806A6
:102EF000FDE100EED9F0090EEE6AE806FDE15C6A3C
:102F00005B6A5A6A596A586A000EF86E00019EEFB1
:102F10000EF0000E2C1A000E2D1A000E2E1A800E26
:102F20002F1A28C001F029C002F02AC003F02BC0DC
:102F300004F02CC005F02DC006F02EC007F02FC005
:102F400008F05CEC08F001C028F002C029F003C0D2
:102F50002AF004C02BF01200000E106E000E0F6E4F
:102F6000BDEF17F00EC001F0026A0CC003F00DC0F7
:102F700004F0F2EC14F00F4A102A0F500A24D96E14
:102F800010500B20DA6EDF500E6E0E50D8A4CBEF2F
:102F900017F0CDEF17F0B2EF17F0120003C005F0F5
:102FA00004C006F001C007F002C008F005C0F6FF3B
:102FB00006C0F7FF054A062A07C0D9FF08C0DAFF96
:102FC000074A082A0800F5CFDFFFDF50D8A4EBEF4F
:102FD00017F0EDEF17F0D6EF17F01200046E1A0E8F
:102FE000E82EFED700D004C003F0033A0F0E0316FC
:102FF0000F0E03168350F00B0324836E025044EC33
:1030000018F004C003F00F0E03168350F00B0324D6
:10301000836E025044EC18F01200015002100310AD
:103020000410D8B416EF18F018EF18F020EF18F0CD
:10303000000E011A000E021A000E031A800E041A66
:1030400001C001F002C002F003C003F004C004F0AC
:103050001200838837EF18F007C002F005C0D9FFCF
:1030600006C0DAFFDF50EEEC17F0054A062A05C06D
:10307000D9FF06C0DAFFDF50D8A441EF18F043EFC4
:1030800018F02CEF18F01200016E0104D8A44BEFD9
:1030900018F04DEF18F04FEF18F0838A839A020E64
:1030A0000118D8A456EF18F058EF18F05AEF18F09E
:1030B000838C839C12002020202020202020202090
:1030C0002020202020202020202020202020202000
:0F30D00020202020202020202020202020202011
:1030E00001500302F3CF05F0F4CF06F001500402C3
:1030F000F350062602500302F350062605C001F0E5
:1031000006C002F01200066E839806C002F0010E9F
:10311000EEEC17F0060E056E300EE82EFED7052EEB
:10312000FCD700D01200066E839805C002F006504E
:0A313000800FEEEC17F01200120001
:020000040020DA
:08000000FFFFFFFFFFFFFFFF00
:020000040030CA
:0E000000FF221F3CFFBF85FF0FC00FE00F4027
:00000001FF
