:040000008CEF00F091
:100008005582D9CF04F0DACF05F0F3CF06F0F4CF5C
:1000180007F0F2A412EF00F014EF00F082EF00F006
:10002800F294060ED66E000E806E4350D8A41FEFD1
:1000380000F021EF00F025EF00F04EC083FF45EF00
:1000480000F03C0E4324D96EDA6A000EDA22DF5043
:10005800016E026A440E0124D96E000E0220DA6E87
:10006800DF50036E030E4318D8B43DEF00F040EFA5
:1000780000F0010E41EF00F0000E800DF350032454
:10008800836E43C001F0010E026E012A4EEF00F0AC
:10009800D8900236012E4CEF00F00250806E432AB1
:1000A800030E43645AEF00F05CEF00F082EF00F0BB
:1000B800000E436E402A7C0E406465EF00F067EF47
:1000C80000F082EF00F0000E406E422A050E4264F6
:1000D80070EF00F072EF00F074EF00F0000E426E67
:1000E80042C001F0010E026E012A7DEF00F0D890A7
:1000F8000236012E7BEF00F00250826E07C0F4FF3B
:1001080006C0F3FF05C0DAFF04C0D9FF55921100FD
:1001180004EF03F0000E0F01386FF00E926E000E20
:10012800806E3F0E396F9368000E3A6FC00E946E62
:10013800000E826E000E3B6F000E956E000E836EF1
:10014800A10EC06E000EC16E4FC022F0224622469C
:10015800C2502218830B2218C26EC280C282C30EFC
:10016800D56E060ED66EF28AF184F28EC2B2BFEF59
:1001780000F0C1EF00F01BEF01F0C350C4CF22F034
:10018800236A22C023F0226A2226000E232222C0DC
:1001980008F023C009F0000E09BEFF0E0A6E0B6EB0
:1001A800880E0C6E130E0D6E000E0E6E000E0F6E86
:1001B800CFEC02F008C014F009C015F00AC016F020
:1001C8000BC017F0FF0E186E030E196E000E1A6E94
:1001D800000E1B6EB3EC01F04150040D240EF32405
:1001E800D96E000EF420DA6E14C0DEFF15C0DEFFF3
:1001F80016C0DEFF17C0DEFF412A050E416407EF77
:1002080001F009EF01F00BEF01F0000E416E4F0E07
:100218004124D96EDA6A000EDA22DF50226E2246B5
:100228002246C2502218830B2218C26EC282425044
:10023800040D240EF324D96E000EF420DA6EDECFFE
:1002480011F0DECF12F0DECF13F0DECF14F0E80E9F
:10025800156E030E166E000E176E000E186E39EC32
:1002680002F011503F6EE80E0C6E030E0D6E000E7C
:100278000E6E000E0F6E4250040D240EF324D96E3C
:10028800000EF420DA6EDECF08F0DECF09F0DECF04
:100298000AF0DECF0BF08BEC02F008C011F009C0B9
:1002A80012F00AC013F00BC014F0640E156E000EA5
:1002B800166E000E176E000E186E39EC02F0115013
:1002C8003E6E640E0C6E000E0D6E000E0E6E000E6D
:1002D8000F6E4250040D240EF324D96E000EF42044
:1002E800DA6EDECF08F0DECF09F0DECF0AF0DECF1F
:1002F8000BF08BEC02F008C011F009C012F00AC034
:1003080013F00BC014F00A0E156E000E166E000ED8
:10031800176E000E186E39EC02F011503D6E425007
:10032800040D240EF324D96E000EF420DA6EDECF0D
:1003380008F0DECF09F0DECF0AF0DECF0BF00A0EB0
:100348000C6E000E0D6E000E0E6E000E0F6E8BEC16
:1003580002F008503C6EBAEF00F08CEF00F0000E8F
:100368001D6E1BBEBCEF01F0BAEF01F0C6EF01F045
:100378001B1E1A1E191E186C000E19221A221B2287
:10038800010E1D6E17BECDEF01F0CBEF01F0D7EFD8
:1003980001F0171E161E151E146C000E15221622CB
:1003A8001722010E1D1A000E1E6E000E1F6E000E83
:1003B800206E000E216E185019101A101B10D8B498
:1003C800E8EF01F0EAEF01F020EF02F0010E1C6EF9
:1003D800F4EF01F0D890183619361A361B361C2A55
:1003E8001BAEF9EF01F0FBEF01F0EEEF01F0D89052
:1003F8001E361F36203621361850145C19501558F1
:100408001A5016581B501758D8A00DEF02F00FEFCE
:1004180002F018EF02F01850145E1950155A1A50CD
:10042800165A1B50175A1E80D8901B321A3219328E
:1004380018321C2EFBEF01F01D50D8B426EF02F045
:1004480028EF02F030EF02F0211E201E1F1E1E6C46
:10045800000E1F22202221221EC014F01FC015F0FA
:1004680020C016F021C017F01200000E196E000E01
:100478001A6E000E1B6E000E1C6E1550161017100B
:100488001810D8B44AEF02F04CEF02F082EF02F0F5
:10049800010E1D6E56EF02F0D89015361636173637
:1004A80018361D2A18AE5BEF02F05DEF02F050EF30
:1004B80002F0D89019361A361B361C361550115CC6
:1004C800165012581750135818501458D8A06FEFD8
:1004D80002F071EF02F07AEF02F01550115E16503B
:1004E800125A1750135A1850145A1980D8901832A3
:1004F8001732163215321D2E5DEF02F019C011F0B9
:100508001AC012F01BC013F01CC014F012000C50DB
:100518000D100E100F10D8B494EF02F096EF02F001
:10052800C6EF02F0010E106EA0EF02F0D8900C3664
:100538000D360E360F36102A0FAEA5EF02F0A7EFD4
:1005480002F09AEF02F00C50085C0D5009580E505A
:100558000A580F500B58D8A0B4EF02F0B6EF02F0CB
:10056800BEEF02F00C50085E0D50095A0E500A5AA0
:100578000F500B5AD8900F320E320D320C32102E0B
:10058800A7EF02F008C008F009C009F00AC00AF095
:100598000BC00BF01200000E106E000E116E000E54
:1005A800126E000E136E08A0DCEF02F0DEEF02F010
:1005B800E6EF02F00C5010260D5011220E501222B8
:1005C8000F501322D8900C360D360E360F36D890B1
:1005D8000B320A3209320832085009100A100B107F
:1005E800D8A4F9EF02F0FBEF02F0D7EF02F010C049
:1005F80008F011C009F012C00AF013C00BF0120085
:100608003E0EF66E060EF76E000EF86E00EE44F023
:1006180010EE11F00900F5CFEEFFE550E150FAE1D8
:1006280000EE24F0200EEE6AE806FDE155905592A2
:1006380000018EEF00F03F065B4F666D7D077F6F10
:070648001C0C0A08090B0D50
:020000040020DA
:08000000FFFFFFFFFFFFFFFF00
:020000040030CA
:0E000000FF221F3CFFBF85FF0FC00FE00F4027
:00000001FF
