:04000000C5EF3FF019
:107F8A000001C8EF3FF0000E0F01386FFE0E926E2F
:107F9A00000E806E840ED56E0B0ED76EDC0ED66E7A
:107FAA00F2A4DAEF3FF0DCEF3FF0F0EF3FF0F294AB
:107FBA000B0ED76EDC0ED66E80A0E6EF3FF0EAEF2E
:107FCA003FF0016A012AEBEF3FF0016A8050011885
:107FDA00FE0B0118806E090E026E1E0E016EE40E73
:107FEA00E82EFED7012EFCD7022EFAD700D0D5EF05
:067FFA003FF000EF00F073
:020000040020DA
:08000000FFFFFFFFFFFFFFFF00
:020000040030CA
:0E000000FF221F3CFFBF85FF0FC00FE00F4027
:00000001FF
