:0400000046EF00F0D7
:100008001F82D9CF1BF0DACF1CF0F2A40EEF00F05C
:1000180010EF00F040EF00F0F294060ED66E070ED7
:10002800846E140E1824D96EDA6A000EDA22DF50B4
:10003800196E1A6A010E1924D96E000E1A20DA6E8A
:10004800DF50836E18C019F0010E1A6E192A2FEFAF
:1000580000F0D8901A36192E2DEF00F01A50FF0A2A
:10006800846E182A020E18643CEF00F03EEF00F090
:1000780040EF00F0000E186E1CC0DAFF1BC0D9FF5D
:100088001F92110025EF01F0000E0F01386F9268E2
:10009800070E396F9368000E3A6F9468000E3B6F35
:1000A800000E956E000E836E000E3C6F000E966E6D
:1000B800070E846EA10EC06E000EC26E0BC01DF03E
:1000C8001D461D46C2501D18830B1D18C26EC280E6
:1000D800C282C20ED56E060ED66EF28AF184F28EF8
:1000E800C2B279EF00F07BEF00F0ACEF00F0C35044
:1000F800C4CF1DF01E6A1DC01EF01D6A1D26000E0D
:100108001E221750020D0E0EF324D96E000EF42095
:10011800DA6E1DC0DEFF1EC0DDFF172A020E17644F
:1001280098EF00F09AEF00F09CEF00F0000E176EC9
:100138000B0E1724D96EDA6A000EDA22DF501D6E14
:100148001D461D46C2501D18830B1D18C26EC28263
:1001580010500E5C11500F58D8A0B5EF00F0B7EF53
:1001680000F0DBEF00F012500E5C13500F58D8A0CF
:10017800C0EF00F0C2EF00F0DBEF00F0010E146EEC
:100188001250105C13501158D8A0CDEF00F0CFEFEB
:1001980000F0D5EF00F0020E156E030E166E74EF28
:1001A80000F0030E156E020E166E74EF00F00E507E
:1001B800105C0F501158D8A0E4EF00F0E6EF00F003
:1001C8000AEF01F01250105C13501158D8A0EFEF4D
:1001D80000F0F1EF00F00AEF01F0020E146E125079
:1001E800105C13501158D8A0FCEF00F0FEEF00F09F
:1001F80004EF01F0010E156E030E166E74EF00F099
:10020800030E156E010E166E74EF00F0030E146ED9
:1002180010500E5C11500F58D8A015EF01F017EFD1
:1002280001F01DEF01F0010E156E020E166E74EF4F
:1002380000F0020E156E010E166E74EF00F046EF18
:1002480000F0800EF66E020EF76E000EF86E00EEED
:1002580001F010EE0DF00900F5CFEEFFE550E1508A
:10026800FAE100EE0EF00B0EEE6AE806FDE11F90D3
:100278001F92000148EF00F03F065B4F666D7D0757
:050288007F6F0C0A0865
:020000040020DA
:08000000FFFFFFFFFFFFFFFF00
:020000040030CA
:0E000000FF221F3CFFBF85FF0FC00FE00F4027
:00000001FF
